:100000000C9469000C9488000C9488000C9488006F
:100010000C9488000C9488000C9488000C94880040
:100020000C9488000C9488000C9488000C94880030
:100030000C9488000C9400040C9488000C94050324
:100040000C944A0D0C94800D0C94BC030C94C703C3
:100050000C94D2030C9488000C9488000C948800B3
:100060000C9419030C9488000C9488000C9488005C
:100070000C9488000C9488000C9488000C948800E0
:100080000C9488000C9488000C9488000C948800D0
:100090000C9488000C9488000C9488000C948800C0
:1000A0000C9488000C9488000C9488000C948800B0
:1000B0000C9488000C9488000C9488000C948800A0
:1000C0000C9488000C9488000C94880000020E06A2
:1000D0000C0411241FBECFEFD1E2DEBFCDBF12E072
:1000E000A0E0B2E0E0E1FAE200E00BBF02C007905E
:1000F0000D92AC30B107D9F713E0ACE0B2E001C02B
:100100001D92A03BB107E1F70E9489110C940715DD
:100110000C9400008FB7F894992708958FBF089525
:10012000282F9FB7F894E82FFF27EA5DFD4F8081C5
:100130008F3F81F4E091A803E21771F40BC0209384
:10014000090304C0FF27EA5DFD4F20832093A80325
:1001500020E007C025E005C0809109038F3F91F79B
:10016000EECF892F99278FBF822F99270895882353
:1001700019F08CB5806402C08CB58F7B8CBD08955E
:10018000882319F08CB5806802C08CB58F778CBD40
:1001900008950F931F9380E00E94B7000FB7F89463
:1001A0001127229A2398219A209A8CB580618CBDC0
:1001B00080E00E94C0008CB5877F8CBD8CB58B7FA2
:1001C0008CBD81E00E94B7008DB581608DBD8CB57E
:1001D0008C7F8CBD0FBF1F910F9108950F931F93BC
:1001E000CF93DF93182F0FB7F89480910F028823D5
:1001F00011F40E94C900802F99278FBF8FB7F89400
:10020000C82FDD272C2F80910F02882361F481E015
:1002100080930F02109376028BE00E949000CFBF74
:1002200080E090E021C0E12FFF27EA5BFD4F808155
:100230008F3F89F4E0910A02E11789F40CC0109312
:10024000090204C0FF27EA5BFD4F108310930A02E6
:1002500080E090E002C085E090E02FBF05C0809173
:1002600009028F3F79F7EBCFDF91CF911F910F916B
:100270000895FB0121E030E002C0220F331F8A9570
:10028000E2F784A5822B84A708958FB7F894209174
:10029000DE023091DF024091E0025091E102E091F4
:1002A0008400F0918500B09B08C02F5F3F4F4F4FF7
:1002B0005F4FE0918400F091850099278FBFC901BD
:1002C000772766279F0144275527622B732B842BA2
:1002D000952B0895FC0182819927982F88272181E9
:1002E0003327822B932B25E0969587952A95E1F766
:1002F000817090700895FC0140E050E08281992760
:10030000982F882721813327822B932B87749C7CFD
:100310008154984811F441E050E0CA010895FC016D
:1003200087819927982F882726813327822B932B23
:100330000895AC01EFB7F8942091840030918500C6
:10034000C901841B950B03968617970720F0B90106
:100350006D5F7F4F02C0640F751F6115710511F449
:1003600061E070E061507040709389006093880094
:1003700082E086BB80916F00826080936F008E2F39
:1003800099278FBF089580931203882311F484E086
:1003900001C081E080933C0284E00E9490000895B7
:1003A00020E030E0FC0181818770823011F421E08F
:1003B00030E0C9010895CF93DF93EC010E946A01F8
:1003C0008823D1F0CE010E947B018823A9F0CE01C1
:1003D0000E948F012FB7F894332740910302509168
:1003E00004022FBF20E08417950709F021E081E087
:1003F0002827822F992702C080E090E0DF91CF91DB
:100400000895FB0121E030E002C0220F331F8A95DE
:10041000E2F784A5822399270895EF92FF920F9324
:100420001F937C018FB7F89499270091F2021091E5
:10043000F3020F5E1E4F1093F3020093F20201517C
:1004400011408FBF86E00E949000C801B7010E9452
:1004500096148A5D9E4F1F910F91FF90EF90089523
:100460007FB7F8946091B20020912102309122026E
:100470004091230250912402B99B11C08091B30096
:100480009091B200280F311D411D511D2F5F3F4F2C
:100490004F4F5F4F290F311D411D511D04C0260FC5
:1004A000311D411D511D872F99278FBFCA01B901E9
:1004B00008950B960895FC01655F60830895DF92AF
:1004C000EF92FF920F931F938FB7F894282F332743
:1004D000D22E9091B3008091B20047B3981711F0DB
:1004E00041FF02C02FBF71C080913E028823E1F11D
:1004F0000E943002E0901A02F0901B0200911C0250
:1005000010911D0220910E0330910F0340911003B2
:10051000509111036E197F09800B910B62177307BD
:100520008407950720F010923E0271E01EC02E0D48
:100530003F1D401F511F8091210290912202A091E6
:100540002302B0912402281B390B4A0B5B0B273E78
:1005500031054105510540F4822F223010F070E042
:1005600005C070E082E002C070E086EE682F615046
:100570008091B60083FDFCCF8091B200681709F42A
:100580006F5F20912102309122024091230250910D
:100590002402DA01C9010196A11DB11D860F911D2A
:1005A000A11DB11D82179307A407B50710F4622F90
:1005B00060958091B60083FDFCCF6093B300DFBEF1
:1005C000772319F087E00E9490001F910F91FF9010
:1005D000EF90DF900895AFB7F894BB27E1E0E09388
:1005E0003E0260931A0270931B0280931C02909348
:1005F0001D0220930E0330930F034093100350937A
:100600001103AFBF0E945F0208951F920F920FB6B1
:100610000F9211248F938091B0008093B00080914D
:10062000B60081FDFCCF8F910F900FBE0F901F90F1
:1006300018951F920F920FB60F9211240F931F93CC
:100640002F933F934F935F936F937F938F939F93DA
:10065000AF93BF93CF93DF93EF93FF932EB5E091CA
:10066000EB02F091EC02309739F08091D802909132
:10067000D902E80FF91F20838091D8029091D90206
:1006800001969093D9028093D80280E00E94C00026
:10069000C091D802D091D902209112023091130258
:1006A000C217D30708F042C00091A0031091A10324
:1006B0004091EB025091EC02CE010A9628173907BF
:1006C00008F4C901DA01AC0FBD1FF801EC0FFD1FE2
:1006D0009C012150304015C00115110531F0808179
:1006E0008EBD0DB407FEFDCF04C01EBC0DB407FEC9
:1006F000FDCF8EB54115510509F08C9321961196C9
:100700003196C217D30740F381E00E94C000011563
:10071000110531F00C0F1D1FF80180818EBD01C045
:100720001EBCD093D902C093D80211C01092EC0223
:100730001092EB021092A1031092A00310921302E8
:10074000109212021092D9021092D8028EB5FF9127
:10075000EF91DF91CF91BF91AF919F918F917F9159
:100760006F915F914F913F912F911F910F910F903A
:100770000FBE0F901F90189578941F920F920FB68E
:100780000F9211240F900FBE0F901F901895789420
:100790001F920F920FB60F9211240F900FBE0F9061
:1007A0001F90189578941F920F920FB60F921124F4
:1007B0002F933F938F939F93AF93BF932FB7F8944B
:1007C00033278091DE029091DF02A091E002B09188
:1007D000E1020196A11DB11D8093DE029093DF021C
:1007E000A093E002B093E1022FBFBF91AF919F9120
:1007F0008F913F912F910F900FBE0F901F901895E2
:100800001F920F920FB60F9211242F933F934F9385
:100810005F936F937F938F939F93AF93BF93EF9368
:10082000FF938091B0008093B0008091B60081FD6D
:10083000FCCF8091B30099270196AA27BB2720916E
:100840002102309122024091230250912402280F6C
:10085000391F4A1F5B1F20932102309322024093CD
:1008600023025093240278940E945F02FF91EF913B
:10087000BF91AF919F918F917F916F915F914F91B8
:100880003F912F910F900FBE0F901F90189521E070
:10089000209378022093ED0220918400309185000E
:1008A000BC01C9010E94990108951F93982F1FB799
:1008B000F89480910E02823099F580910802891790
:1008C00079F58091060220E030E08F3F11F421E0BD
:1008D00030E0232BF1F49FEF909308028F3F19F43F
:1008E0002FEF30E00DC0282F3327F901E85CFD4FD2
:1008F0008081809306028F3F11F4909307029083CA
:100900002093350281E080930E0282E00E949000E5
:1009100005C08FEF8093080210920E0221E001C003
:1009200020E0812F99278FBF90E0213009F491E0DA
:1009300081E09827892F99271F9108958FB7F89400
:10094000282F3327922F80910B02882331F4809136
:100950000F02823011F42FBF13C09FBF8FB7F894DE
:10096000282F332780910F02882369F482E0809337
:100970000F0210920B022FBF0E94C900209A289AE2
:1009800081E090E008952FBF80E00E94EE0080E0BB
:1009900090E008953F924F925F926F927F928F9274
:1009A0009F92AF92BF92CF92DF92EF92FF920F93FE
:1009B0001F93CF93DF932C0180911102882309F0BC
:1009C0007AC18091A203853009F075C10E949E040E
:1009D000882309F470C18091FA02882309F06BC161
:1009E000B20182E00E940102882311F490E003C06A
:1009F000F20196A59F708091A802981781F09093BC
:100A0000A802289885EC8EBD0DB407FEFDCF8EB5EB
:100A100090689EBD0DB407FEFDCF8EB5289AC20129
:100A20000E947B01882301F1289886E88EBD0DB4D1
:100A300007FEFDCF8EB51EBC0DB407FEFDCF8EB5F3
:100A4000289A99278F719070209143024091390222
:100A5000240F312D311D43E0359527954A95E1F757
:100A6000281739070CF427C1289882EC8EBD0DB4E5
:100A700007FEFDCF8EB589E08EBD0DB407FEFDCF1C
:100A80008EB5289A0E9445017B018C01B20184E059
:100A90000E940102882319F4E0E0F0E006C0D201D0
:100AA0008C918550F201E80FF11D289881E88EBDE8
:100AB0000DB407FEFDCF8EB51EBC0DB407FEFDCFF5
:100AC0008EB5289A8F71893079F0289882EC8EBD86
:100AD0000DB407FEFDCF8EB586E08EBD0DB407FECA
:100AE000FDCF8EB5289AE7C08FB7F89499272F9A33
:100AF00020918400309185008FBF2F98289880E640
:100B00008EBDD2019C910DB407FEFDCF8EB59EBD6A
:100B10008EEF382E390EB6E0B31510F0632D01C0FC
:100B200067E0A2014F5F5F4FDA01962F7D910DB410
:100B300007FEFDCF8EB57EBD9150C1F76150EA0131
:100B4000C60FD11D6F5F21962E193F092E553F4FBD
:100B50003901882477FC8094982C6E0C7F1C801EB1
:100B6000911E309719F4932D961B42C02081E1808D
:100B70008281A3809927AA27BB27BA2FA92F982F54
:100B80008827332744275527522F442733272227E6
:100B9000FF24002711278701FF24EE242E293F2957
:100BA000402B512BBB24CC24DD242A293B294C2962
:100BB0005D29822B932BA42BB52B86199709A809A5
:100BC000B9098383292F3A2F4B2F552722839D0163
:100BD0004427552721838B2F9927AA27BB2780835A
:100BE000C2CF28810DB407FEFDCF21968EB52EBD54
:100BF0009150B8F70DB407FEFDCF8EB5289A28980E
:100C000082EC8EBD0DB407FEFDCF8EB586E08EBDA5
:100C10000DB407FEFDCF8EB5289A3097D1F1208113
:100C2000E1808281A3809927AA27BB27BA2FA92F09
:100C3000982F8827332744275527522F44273327B7
:100C40002227FF24002711278701FF24EE242E29C5
:100C50003F29402B512BBB24CC24DD242A293B29BE
:100C60004C295D29822B932BA42BB52B860D971D28
:100C7000A81DB91D8383292F3A2F4B2F5527228377
:100C80009D014427552721838B2F9927AA27BB270E
:100C90008083B20181E00E943901F20160A671A651
:100CA00082A693A686E08093A20384E0809311023B
:100CB00080E090E002C085E090E0DF91CF911F914D
:100CC0000F91FF90EF90DF90CF90BF90AF909F90EB
:100CD0008F907F906F905F904F903F9008950F930B
:100CE0001F93982F1FB7F89480910F02823099F5C7
:100CF00080910B02891779F58091090220E030E09C
:100D00008F3F11F421E030E0232BF1F49FEF90931B
:100D10000B028F3F19F42FEF30E00DC0282F33273F
:100D2000F901EA5BFD4F8081809309028F3F11F446
:100D300090930A0290832093760281E080930F02C1
:100D40008BE00E94900005C08FEF80930B02109201
:100D50000F0201E001C000E0812F99278FBF1FB76C
:100D6000F89480910F02882311F40E94B700812F1C
:100D700099278FBF90E0013009F491E081E0982736
:100D8000892F99271F910F91089580913C028230FD
:100D900031F481E080933C0284E00E949000089549
:100DA000AF92BF92CF92DF92EF92FF920F931F9379
:100DB000CF93DF938091FA02882309F4F5C00E9453
:100DC0009E04882309F4F0C08FB7F8949927C09146
:100DD0004402D09145028FBF1092FA0228988FE802
:100DE0008EBD0DB407FEFDCF8EB51EBC0DB407FE43
:100DF000FDCF8EB5289A982F80911102833011F083
:100E0000873031F485E08093A20388E0809311025B
:100E1000A92EBB24A2FE63C080911102863019F472
:100E20001092110203C0882309F059C0943009F0D0
:100E300045C0289886E88EBD0DB407FEFDCF8EB55F
:100E40001EBC0DB407FEFDCFFEB4289A2FE1F2229E
:100E500080913902982F969596953F2D391B830FD7
:100E60008093390200911E0210911F02F80184A59F
:100E70008B7F84A7B80183E00E943901F801F6A6B0
:100E80000E9445017B018C01C0901E02D0901F0280
:100E9000B60181E00E943901CE19DF092797CE0102
:100EA000AA2797FDA095BA2F8E0D9F1DA01FB11FD9
:100EB000F60180A791A7A2A7B3A70EC0E0911E02DA
:100EC000F0911F0284A5877F84A7E0911E02F09114
:100ED0001F0284A58D7F84A785E080931102A3FE65
:100EE00063C080911102843009F041C085E0809395
:100EF000A2031092110280912002833019F4109203
:100F0000200252C00091A9031091AA03C8010E94B7
:100F10006A01882321F1C8010E947B018823F9F02E
:100F2000C8010E948F018F5F9F4FC9F090E08091B0
:100F3000ED02882309F491E0992389F012E01093DF
:100F4000780281E08093ED02809184009091850089
:100F500069E973E00E9499011093200225C0109264
:100F6000200210923D0280E00E94C3011DC0853026
:100F7000D9F420914302289886E88EBD0DB407FE6F
:100F8000FDCF8EB51EBC0DB407FEFDCF8EB5289AE1
:100F90008F71922F96959695891B280F2093430267
:100FA00089E08093110208C090911102992309F4FD
:100FB000DFC2993009F00CC2289880E28EBD0DB4D2
:100FC00007FEFDCF8EB51EBC0DB407FEFDCF8EB55E
:100FD000482F5527433008F490C3842F99278A97C8
:100FE0000CF08BC31EBCE0911E02F0911F024083E7
:100FF000042F0250073010F4102F01C017E09F019A
:101000002F5F3F4F912FF901EE24FF240DB407FE0F
:10101000FDCF8EB51EBC80838191A7014827042E89
:101020004295407F4025052E542F42954F7004264F
:10103000469554274527440F440F440F40257A0115
:10104000915021F71150E901C10FD11D1F5F219669
:1010500080911E0290911F020E94D001882349F0C6
:1010600020E030E080912002823081F421E030E005
:101070000DC08FB7F894282F332790E08091F402A9
:10108000833008F491E02FBF292F3327232B09F455
:101090005FC0902F911B1AC00DB407FEFDCF8EB517
:1010A0001EBC88838991F701E8270E2EE295E07F28
:1010B000E0250F2EFE2FE295EF700E26E695FE2717
:1010C000EF27EE0FEE0FEE0FE0257F01915020F796
:1010D0000DB407FEFDCF8EB51EBC97012827022E4A
:1010E0002295207F2025032E322F22952F70022655
:1010F000269532272327220F220F220F20250DB4F9
:1011000007FEFDCF8EB51EBC2827022E2295207F1C
:101110002025032E322F22952F7002262695322766
:101120002327220F220F220F20250DB407FEFDCF0B
:101130008EB5E0911E02F0911F0285A7289A15E056
:101140001093A20310921102232B09F00DC205C0C7
:101150000DB407FEFDCF8EB5D0C2C0911E02D09156
:101160001F02CE010E94D00190912002882321F11C
:10117000923009F028C19B81E091A903F091AA0364
:101180008381981709F01FC189818770823009F027
:101190001AC180916F008D7F80936F001092ED02D5
:1011A000BF0180E00E9439011092200210923D029E
:1011B00080E00E94C30107C19923C1F4CE010E94BF
:1011C000DB01882399F01093A90282E08093AA02A0
:1011D0001092AB028B818093AC0289EA92E00E946C
:1011E000CA04882319F483E08093200200918400CC
:1011F00010918500CE010E94DB01882311F0045E6E
:101200001C4F1093DB020093DA02809184009091CE
:1012100085009801281B390B12161306A4F480913F
:101220003D02882369F490E08091ED02882309F45F
:1012300091E0992341F0C9010E94470480E801C070
:10124000806880933D025E010894A11CB11C8985D1
:1012500028859927582F44273327422B532B8091D9
:101260002502282F3327F901EE0FFF1FE550FD4F10
:10127000808191810091EE028417950749F4F9016C
:10128000ED55FC4F8081801709F468C0802F1BC08A
:10129000EE24FF2480E090E0ABEFB2E0E3EAF3E07D
:1012A000BF01182F9C018D919C9111978417950770
:1012B00089F4209325029091EE02FB018081891729
:1012C00009F44CC0892F8F5F8093EE028083E0E8A1
:1012D000EE2E2AC08081902F981BE91610F4E92E7B
:1012E000F22E1F5FC90101966F5F7F4F12963196F4
:1012F00085309105B1F61530B9F4F0922502AF2D85
:10130000BB27FD01EE0FFF1FE550FD4F51834083CA
:101310008091EE028F5F8093EE02FD01ED55FC4F50
:101320008083A555BC4F1C929091EE02892F8F7738
:101330008F3781F4EEE7EE1568F4E3EAF3E0292F46
:10134000207880818F6789132083319633E0E83AD3
:10135000F307B9F780912502282F3327F5019281F1
:10136000A22FBB27FD01E555FC4F808180FF07C000
:10137000FD01EB50FD4F8081981729F102C081607B
:101380008083AB50BD4F9C93FFB6F8948091F402DC
:101390008330B0F4E0910C03E80FE33008F0E35041
:1013A000FF27EE0FFF1FEC5EFD4F00811181D183FF
:1013B000C0838F5F8093F40285E00E949000E80173
:1013C0008F2D99278FBFD0931F02C0931E02C3C0D9
:1013D000892F8150833008F09CC081508230E0F426
:1013E0003091A2033130C1F420E08091ED028823D6
:1013F00009F421E0222381F02F9883E08093780282
:101400003093ED0280918400909185006BE273E04F
:101410000E94990182E068C0933009F042C0809137
:10142000A203833009F097C00E949E048823C9F16B
:1014300028988FE88EBD0DB407FEFDCF8EB51EBC7B
:101440000DB407FEFDCF8EB5289A8091810080648F
:101450008093810080E286BB80916F0080628093E0
:101460006F0090913402289888EC8EBD0DB407FE71
:10147000FDCF8EB590669EBD0DB407FEFDCF8EB537
:10148000289A289882EC8EBD0DB407FEFDCF8EB54C
:1014900086E08EBD0DB407FEFDCF8EB5289A84E0A0
:1014A00023C0809111028150823000F58091A20307
:1014B0008530E1F40E949E048823C1F0289882ECD4
:1014C0008EBD0DB407FEFDCF8EB583E08EBD0DB48D
:1014D00007FEFDCF8EB5289A80916F008F7D809397
:1014E0006F001092FA0283E08093A20390911102A0
:1014F000913041F48091A2038330B1F52F9A9093FB
:10150000A20325C0923039F58091A203833061F5A2
:101510001EC0973001F50E949E048823E1F090914F
:101520003402289888EC8EBD0DB407FEFDCF8EB531
:1015300090669EBD0DB407FEFDCF8EB5289A8091B2
:10154000A203853021F484E08093A20304C088E0E4
:101550008093110204C080911102883029F4109206
:10156000110283E00E94900080911102882309F506
:101570008091A2038530D1F48091FA028823B1F4DE
:1015800080912002882391F480913D02882371F498
:1015900090E08091ED02882309F491E0992331F0E5
:1015A0000E94C50680911102882319F489E00E94E7
:1015B00090008091ED02823009F092C01092ED020D
:1015C000F0907802F2E0FF1609F466C023E0F2160C
:1015D00009F46AC031E0F31609F082C02091DA0202
:1015E0003091DB02809184009091850040913D0212
:1015F000403829F410923D020E94C50671C089014D
:10160000081B190B47FF03C010161106ECF0C09120
:101610003A02D0913B02809120028823A9F4CE01A6
:101620000E94CA049927882351F48CA58E7F8CA729
:10163000F0922002D093AA03C093A90329C099274E
:10164000F82E882329F102C055E0F52E20913D02A5
:10165000822F99278F77019759F420782260209361
:101660003D0280E198E00E940D020E94470438C0CC
:1016700027FF0AC0101611063CF480E880933D0253
:10168000C8010E94470402C010923D028F2D09C07C
:1016900083E080933D0224C01092200210923D020C
:1016A00080E00E94C3011CC08091A203823019F423
:1016B000F092A20313C080911102863079F4109247
:1016C0001102289881E88EBD0DB407FEFDCF8EB5BE
:1016D0001EBC0DB407FEFDCF8EB5289A0E94360DB4
:1016E0008FB7F894282F332780913302813061F02F
:1016F00081E0809333022FBF5DCB289A85E08093F1
:10170000A2031092110230CF109233022FBFDF914B
:10171000CF911F910F91FF90EF90DF90CF90BF90EE
:10172000AF9008958FB7F894282F33278091330214
:10173000815080933302803811F02FBF089581E0EB
:10174000809333022FBF0E94D00608951F93FC019F
:101750008FE38287809110028F5F809310028383D2
:101760002FB7F8943327809133028F5F8093330231
:101770002FBF80913C02882311F015E00DC0F0933B
:10178000F102E093F00281E080933C021092EF02BC
:1017900084E00E94900010E00E94920B812F992714
:1017A0001F910895EF92FF920F931F93CF93DF93B2
:1017B000082F7B01EA01122F2D3118F086E090E00E
:1017C00087C0CA010E947B01882351F4898199272F
:1017D00080739070816498688983892F99278A83A0
:1017E0001E5F612FCE010E945B022FB7F894332752
:1017F00080910302909104022FBF8887892F992737
:1018000089872FB7F8943327809105022FBF992736
:101810008C831D82CE010E945902FC010083EE825E
:101820008F2D99278F838FB7F894282F3327809196
:101830000E02882371F482E080930E021092080257
:101840002FBFCE010E94A60B9927182F882399F04D
:101850000FC02FBFD0933702C09336028FB7F894D2
:10186000C82FDD272C2F80910E02882399F406C003
:1018700080E00E945504812F99272AC081E080933F
:101880000E021092350282E00E949000CFBF80E0ED
:1018900090E01EC0809138028F3F89F4E0910702EA
:1018A000EE2369F010C01092060204C0FF27E85C26
:1018B000FD4F10821092070280E090E002C085E0A8
:1018C00090E02FBF05C0809106028F3F79F7EBCFE4
:1018D000DF91CF911F910F91FF90EF900895EF92BC
:1018E000FF920F931F93CF93DF9310920202C09148
:1018F000DC02D091DD02209721F080910D0380FF62
:1019000008C081E08093020217C081E00E9490002D
:1019100013C008810D501127CE010E948F017C0158
:10192000CE010E945902FC01202FAE01B701808137
:101930000E94D20B882349F7DF91CF911F910F911D
:10194000FF90EF900895EF92FF920F931F93CF9324
:10195000DF93E091EA02E1FF7FC02091E202309143
:10196000E3024091E4025091E502E090E602F0903B
:10197000E7020091E8021091E902621B730B840BED
:10198000950B6E157F058007910708F465C0E0FF91
:1019900004C0ED7FE093EA020CC02E0D3F1D401FF6
:1019A000511F2093E2023093E3024093E4025093EC
:1019B000E50220910C0230910D022F5F3F4F3093D2
:1019C0000D0220930C0280917702882309F044C015
:1019D00020935402832F9927809353028FEF809393
:1019E0004D0280934E02C7E4D2E0CE010E9459021C
:1019F0008C0186E0F80180838091DC029091DD0209
:101A0000892B51F5D093DD02C093DC0264E0CE0156
:101A10000E945B02809102028823D9F0F8010081C4
:101A20001127CE010E948F011092020222E0AE0126
:101A3000BC01802F0E94D20B9927282F882349F0C0
:101A400081E0809302021092DD021092DC022223D8
:101A500019F481E08093770288E00E949000DF9182
:101A6000CF911F910F91FF90EF9008958FB7F89449
:101A7000282F332780913302882329F080688093B0
:101A800033022FBF089581E0809333022FBF0E945D
:101A9000D006089578941F920F920FB60F921124DA
:101AA0002F933F934F935F936F937F938F939F9366
:101AB000AF93BF93EF93FF93E6E8F0E080819181CD
:101AC000208131818FB7F894992730934502209374
:101AD000440221E02093FA028FBF0E94360DFF914D
:101AE000EF91BF91AF919F918F917F916F915F9196
:101AF0004F913F912F910F900FBE0F901F9018950F
:101B000078941F920F920FB60F9211242F933F9348
:101B10004F935F936F937F938F939F93AF93BF93F5
:101B2000EF93FF9380916F008D7F80936F00789487
:101B30009FB7F8948091ED02813019F482E0809390
:101B4000ED02892F99278FBF0E94360DFF91EF91EB
:101B5000BF91AF919F918F917F916F915F914F91C5
:101B60003F912F910F900FBE0F901F9018951F93CC
:101B70008FB7F8949927209133022F5F2093330277
:101B80008FBF80913C02882311F015E023C0809123
:101B900011028823E1F48091A203813049F490E09E
:101BA0008091ED02882309F491E0992381F005C02A
:101BB000853019F489E090E00CC083E08093110235
:101BC0000E94360D85E080933C0210E003C085E062
:101BD00090E0182F0E94920B812F99271F91089552
:101BE0002F923F924F925F926F927F928F929F922D
:101BF000AF92BF92CF92DF92EF92FF920F931F931B
:101C0000CF93DF93CDB7DEB729970FB6F894DEBF39
:101C10000FBECDBF382F853009F448C1863098F407
:101C2000823009F48DC0833038F4882309F446C02B
:101C3000813009F038C36CC0833009F4BDC08430F2
:101C400009F031C3C9C0883009F43DC2893038F485
:101C5000863009F4A7C1873009F025C3FFC18A3057
:101C600009F47AC28A3008F414C38B3009F01BC31C
:101C700088C20E9430026093E2027093E302809374
:101C8000E4029093E5028AEF90E0A0E0B0E0809358
:101C9000E6029093E702A093E802B093E9028091F4
:101CA000EA028E7F82608093EA0288E00E949000C0
:101CB000FAC22FBFF8C2C801B70102C280910D035A
:101CC000882309F4F0C240E051E090910D03852F84
:101CD0008923C1F0E42FFF27EE0FFF1FE452FD4FD1
:101CE0002081318111821082852F809598239093D5
:101CF0000D03442339F42754324009F0D1C2109225
:101D00007702CEC24F5F483008F0CDC2550FDDCF0D
:101D100010910202E12FFF27EE0FFF1FE452FD4F4B
:101D2000E080F180118210820E946F0C112309F073
:101D3000BAC257E4E51652E0F50609F0B4C2B3C0E2
:101D40008FB7F89499272091350220930802309399
:101D50000E028FBF80910802882309F0A4C28091EF
:101D60003602909137020E94A60B882309F49BC289
:101D700080E00E9455040091360210913702C8019C
:101D80000E94590280910202882309F08CC2E090DF
:101D9000DC02F090DD02E016F10609F084C2109238
:101DA000DD021092DC020E946F0C67E4E61662E02E
:101DB000F60609F078C277C080913C0210923C028E
:101DC000853009F456CF863009F46DC2873009F4A6
:101DD0006AC280933C0267C22FB7F8943327809180
:101DE00033028F5F809333022FBF40913C0241301A
:101DF00081F58091EF028F5F8093EF02863048F586
:101E00002091F0023091F10280913D028823C1F4CB
:101E100090E08091ED02882309F491E0992381F00C
:101E200030933B0220933A0240933D028BED91E1C7
:101E30000E940D020E9447041092120383E004C026
:101E400085E08093120382E080933C020E94920B13
:101E50002AC210923C020E94920BE090F002F09095
:101E6000F102F70182858F3309F01DC280E00E94E4
:101E70005504C7010E94590280910202882309F08B
:101E800012C20091DC021091DD020E151F0509F04F
:101E90000AC21092DD021092DC020E946F0C0754FD
:101EA000124009F000C210927702FDC18FB7F8947A
:101EB000282F33278091F402882309F4FACEE09189
:101EC0000C03FF27EE0FFF1FEC5EFD4FE080F1805B
:101ED0002FBFF70182858F3399F5C7010E94590200
:101EE000FC011081F7010081C7010E948F01AC0144
:101EF0008FB7F894992720910302309104028FBF85
:101F00004217530719F04F5F5F4F81F5163071F597
:101F10000F3061F5D7011D96F701858580FF02C05E
:101F2000129801C0129A8C9181FF02C0119801C0D1
:101F3000119A8C9182FF02C0109818C0109A16C096
:101F4000C7010E948F01AC018FB7F89499272091A7
:101F50000302309104028FBF4217530719F04F5FFD
:101F60005F4F21F48FB7F89499278FBF9FB7F894EC
:101F700080910C03E82FFF27EE0FFF1FEC5EFD4F53
:101F8000F182E0828F5F80930C03833010F0109217
:101F90000C038091F40281508093F402892F9927D9
:101FA0008FBF84CF2FB72983F89420903F023090C1
:101FB00040024090410250904202662477248824D7
:101FC000EEE4AE2E73E8B72ECC24DD24EE24FF24FD
:101FD00000E010E0222D332D442D552D662D772D58
:101FE000882D90E00E9415132A833B834C835D83E8
:101FF0006E837F8388879987822E932EA42EB52E99
:102000002401350100E20E941314A22EB32EC42E27
:10201000D52EA301920156954795379527952A0D00
:102020003B1D4C1D5D1D57FF05C05F772F5F3F4F68
:102030004F4F5F4F20933F02309340024093410245
:10204000509342026981862F99278FBF8FB7F894EA
:1020500099273093F3022093F20291C080913202CB
:10206000882361F520910503309106034091070311
:1020700050910803EFB7F894FF2760911A0270910E
:102080001B0280911C0290911D02E0900E03F090C3
:102090000F0300911003109111036E0D7F1D801F1F
:1020A000911FEFBF2093050330930603409307036E
:1020B00050930803109232020E94EB020E943002F9
:1020C0000E94A30CF0C00E9430027B018C018FB7EC
:1020D000F894992710923E028FBF8091EA0281FF07
:1020E000E2C08091E2029091E302A091E402B091FB
:1020F000E502A8019701281B390B4A0B5B0BDA019B
:10210000C9012091E6023091E7024091E802509126
:10211000E902281B390B4A0B5B0B2F3F6FEF360789
:102120006FEF46076FE7560709F4BDC01216130696
:10213000140615060CF0BFCD20930503309306035B
:10214000409307035093080381E080933202C80153
:10215000B7010E94EB02A7C08FB7F894992710929D
:10216000EC021092EB021092A1031092A0031092C5
:102170001302109212021092D9021092D8028FBF4D
:1021800092C02FB7F89433278091760280930B0288
:1021900082E080930F022FBF80910B02882309F009
:1021A00082C0209A289A8091A203882309F075C0E2
:1021B0008EEF91E0019701960197E1F716982F981D
:1021C00086E090E0019701960197E1F7169A28982A
:1021D00083EC8EBD0DB407FEFDCF8EB51EBC0DB4D5
:1021E00007FEFDCF8EB5289A289882EC8EBD0DB4DF
:1021F00007FEFDCF8EB588E08EBD0DB407FEFDCF86
:102200008EB5289A8EEF91E0019701960197E1F73C
:1022100028988EEC8EBD0DB407FEFDCF8EB58DE4F3
:102220008EBD0DB407FEFDCF8EB5289A289889EC97
:102230008EBD0DB407FEFDCF8EB587EC8EBD0DB4FF
:1022400007FEFDCF8EB5289A289885EC8EBD0DB47B
:1022500007FEFDCF8EB580E88EBD0DB407FEFDCF25
:102260008EB5289A1092A8028BE0809334022898A9
:1022700088EC8EBD0DB407FEFDCF8EB58BE68EBD0E
:102280000DB407FEFDCF8EB5289A2F9A81E080937A
:10229000A20380E00E946F0606C00E94360D03C0B4
:1022A000550F41E012CD29960FB6F894DEBF0FBE50
:1022B000CDBFDF91CF911F910F91FF90EF90DF90F5
:1022C000CF90BF90AF909F908F907F906F905F90D6
:1022D0004F903F902F900895809109038F3FB1F068
:1022E000282F3327F901EA5DFD4F80818093090390
:1022F0008F3F11F48093A8038FEF80832F3F31F03D
:10230000822F0E94F00D81E090E0089580E090E03F
:1023100008950F931F930FB7F89414BE88E10FB67A
:10232000F89480936000109260000FBE4CE050E083
:102330006FEF70E086E292E00E9400158FEF8093CD
:1023400009038093A80356985E9854985C988091EE
:102350006F008F7D80936F00209A289A279A2F987C
:102360000E9A169A89E792E090931F0280931E02BC
:10237000109243028AE58093390281E080938100C4
:1023800080E28093B60083E08093B1008091840066
:10239000909185004AE720918400309185002817AC
:1023A000390708F44150442311F0C901F4CF90914A
:1023B000B2008091B2008917E1F32091840030913E
:1023C00085009091B2008091B2008917E1F380916D
:1023D000840090918500821B930B409625E0969592
:1023E00087952A95E1F790930B0380930A03109247
:1023F000B1008091B1008093810080918100809331
:10240000B6001092B20010928500109284008FEFF7
:1024100087BB87B386BB8091B6008571E1F70A9AC6
:10242000099A089A129A119A109A18B88FEF87B9D8
:102430000C981498109285001092840080916F007F
:10244000816080936F0080918100887F826080939B
:1024500081000E946C118823E1F78FEF8093460280
:1024600080E00E94EE00182F8091B6008062809379
:10247000B6008091B60081FDFCCF82E08093B00071
:102480008091B60080FDFCCF83E08093B100809105
:10249000B60083FDFCCF86EE8093B3008091700080
:1024A0008260809370000E945F0280910002909190
:1024B00001020196AA27BB2780933F029093400216
:1024C000A0934102B093420283E193E090931502FE
:1024D000809314028F96909317028093160281E7DF
:1024E00093E090931902809318028FEF9FEF9093DF
:1024F000FC028093FB029093FE028093FD02909376
:1025000000038093FF029093020380930103909352
:10251000040380930303809100028295807F80935F
:1025200010028FEF809338020E946C118823E1F72C
:10253000802F99278FBF78940E94B70D8FB7F8949A
:10254000482F552757C0809170009927837090704D
:10255000892B19F4E5E0F0E014C08091B6008A718F
:10256000E1F78091B3009091B200891B8C3038F074
:102570008091B200853F18F4E3E0F0E002C0E2E0B1
:10258000F0E080916E00867009F580916F008E7288
:10259000E9F4809171008E72C9F40CB407FC16C086
:1025A0008091C100887191F48091C900887171F4A3
:1025B0008091BC0082FD0AC080917A0087FF03C031
:1025C00081E090E005C085E090E002C080E090E00E
:1025D00023B78E1708F4E82FFF27E453FF4FE49149
:1025E000207F2160E22BE3BF78948895F89483B72D
:1025F0008E7F83BF809109038F3F09F4A4CF282FDA
:102600003327F901EA5DFD4F8081809309038F3FF5
:1026100011F48093A8038FEF80832F3F09F493CFA9
:102620004FBF822F0E94F00D89CFACE2B0E0EBE10A
:10263000F3E10C94C914222E332E442E552E662E0F
:10264000772E882E992EFE013196A8E01192AA9538
:10265000E9F729823A824B825C826D827E828F8288
:102660009886FE013996B8E01192BA95E9F7A986E5
:10267000BA86CB86DC86ED86FE860F87188B89812D
:102680009A81AB81BC8189A79AA7ABA7BCA77C0123
:102690008D018FEF9FEFA0E0B0E0E822F9220A233E
:1026A0001B2389A59AA5ABA5BCA51D0144245524CF
:1026B00089859A85AB85BC858DA39EA3AFA3B8A75A
:1026C0005C016D018FEF9FEFA0E0B0E0A822B9227E
:1026D000CA22DB228DA19EA1AFA1B8A53D0188240D
:1026E0009924C801B701A60195010E94AA1469A303
:1026F0007AA38BA39CA3C801B701A40193010E94F4
:10270000AA147B018C01C201B101A60195010E94AE
:10271000AA145B016C01C201B101A40193010E94E2
:10272000AA143B014C01EA0CFB1C0C1D1D1D89A1C8
:102730009AA1ABA1BCA19D01442755272E0D3F1D99
:10274000401F511F2A153B054C055D0540F480E0F4
:1027500090E0A1E0B0E0680E791E8A1E9B1ECA01BF
:10276000AA27BB27860D971DA81DB91D8D8F9E8F8B
:10277000AF8FB8A3A9013327222789A19AA1ABA1C2
:10278000BCA1A070B070280F391F4A1F5B1F298F92
:102790003A8F4B8F5C8FA98CBA8CCB8CDC8CED8CF8
:1027A000FE8C0F8D18A1FE01719698E011929A95FA
:1027B000E9F7ED8AFE8A0F8B188F2D813E814F81BC
:1027C00058856DA17EA18FA198A50E94AA143B01F6
:1027D0004C012D853E854F85588969A57AA58BA525
:1027E0009CA50E94AA142D893E894F89588D260FD9
:1027F000371F481F591F260D371D481D591D2D8B8A
:102800003E8B4F8B588F6D887E888F88988C2A2DB1
:102810003B2D4C2D5D2D662D772D882D992DE2E1D8
:10282000AC960C94E514A0E1B0E0E9E1F4E10C947D
:10283000C914222E332E442E552E662E772E882E26
:10284000992E002309F466C088E0FE0131961192AA
:102850008A95E9F729833A834B835C836D837E8372
:102860008F829887E0E2E01B1E16CCF52D813E8119
:102870004F815885602F772767FD7095DA01C90170
:10288000062E04C0B695A795979587950A94D2F71A
:102890008D879E87AF87B88B04C0220F331F441FDC
:1028A000551FEA95D2F789819A81AB81BC8104C01A
:1028B000B695A795979587956A95D2F7282B392BCA
:1028C0004A2B5B2B29873A874B875C8729843A847C
:1028D0004B845C846D847E848F8498881BC01D86A5
:1028E0001E861F86188A2E2F332727FD3095309598
:1028F00021953F4F8D819E81AF81B88504C0B695EB
:10290000A795979587952A95D2F789879A87AB8758
:10291000BC87DCCF222D332D442D552D662D772DF0
:10292000882D992DE2E160960C94E514AA1BBB1B3F
:1029300051E107C0AA1FBB1FA617B70710F0A61BBF
:10294000B70B881F991F5A95A9F780959095BC01E0
:10295000CD010895629FD001739FF001829FE00D29
:10296000F11D649FE00DF11D929FF00D839FF00D0E
:10297000749FF00D659FF00D9927729FB00DE11DBA
:10298000F91F639FB00DE11DF91FBD01CF01112497
:1029900008952F923F924F925F926F927F928F9203
:1029A0009F92AF92BF92CF92DF92EF92FF920F93DE
:1029B0001F93CF93DF93CDB7DEB7CA1BDB0B0FB6E8
:1029C000F894DEBF0FBECDBF09942A8839884888A5
:1029D0005F846E847D848C849B84AA84B984C8843B
:1029E000DF80EE80FD800C811B81AA81B981CE0F32
:1029F000D11D0FB6F894DEBF0FBECDBFED01089517
:102A0000DC0101C06D9341505040E0F70895FFCFC5
:0C2A1000010001010022FFFFFFFFFFFF9B
:00000001FF
