S01700006275696C642F697269732F6D61696E2E7372656343
S11300000C9480010C949F010C949F010C949F010B
S11300100C949F010C949F010C949F010C949F01DC
S11300200C949F010C949F010C949F010C949F01CC
S11300300C949F010C94EE090C949F010C943B0BBF
S11300400C947C140C94B4140C94350A0C94400A4B
S11300500C944B0A0C949F010C949F010C949F01E7
S11300600C94860A0C94D3070C949F010C94610899
S11300700C949F010C949F010C949F010C94BB0958
S11300800C949A090C94A5090C94B0090C94CE090B
S11300900C947D090C949F010C948F090C949F017E
S11300A00C949F010C949F010C949F010C949F014C
S11300B00C949F010C949F010C949F010C949F013C
S11300C00C949F010C949F010C949F015F153716AB
S11300D051165316631688164F15CD16DB16E916FE
S11300E0411744176D17A0171C184618B218561A52
S11300F0701ACC1AE01A5715931B000021104220E5
S113010063308440A550C660E770088129914AA1F4
S11301106BB18CC1ADD1CEE1EFF13112100273326B
S11301205222B5529442F772D662399318837BB344
S11301305AA3BDD39CC3FFF3DEE3622443342004FB
S11301400114E664C774A44485546AA54BB5288594
S11301500995EEE5CFF5ACC58DD55336722611164B
S11301603006D776F6669556B4465BB77AA71997E4
S11301703887DFF7FEE79DD7BCC7C448E5588668D3
S1130180A7784008611802282338CCC9EDD98EE934
S1130190AFF9488969990AA92BB9F55AD44AB77AAB
S11301A0966A711A500A333A122AFDDBDCCBBFFB84
S11301B09EEB799B588B3BBB1AABA66C877CE44CBB
S11301C0C55C222C033C600C411CAEED8FFDECCDD4
S11301D0CDDD2AAD0BBD688D499D977EB66ED55E8B
S11301E0F44E133E322E511E700E9FFFBEEFDDDF24
S11301F0FCCF1BBF3AAF599F788F8891A981CAB1B0
S1130200EBA10CD12DC14EF16FE18010A100C230E1
S1130210E3200450254046706760B9839893FBA39C
S1130220DAB33DC31CD37FE35EF3B1029012F32231
S1130230D2323542145277625672EAB5CBA5A895EC
S113024089856EF54FE52CD50DC5E234C324A01481
S113025081046674476424540544DBA7FAB799877C
S1130260B8975FE77EF71DC73CD7D326F2369106D1
S1130270B01657667676154634564CD96DC90EF9C4
S11302802FE9C899E9898AB9ABA944586548067821
S11302902768C018E1088238A3287DCB5CDB3FEBDC
S11302A01EFBF98BD89BBBAB9ABB754A545A376A71
S11302B0167AF10AD01AB32A923A2EFD0FED6CDDAC
S11302C04DCDAABD8BADE89DC98D267C076C645CC1
S11302D0454CA23C832CE01CC10C1FEF3EFF5DCFBC
S11302E07CDF9BAFBABFD98FF89F176E367E554E11
S11302F0745E932EB23ED10EF01E00020E060C0464
S113030011241FBECFEFD1E2DEBFCDBF12E0A0E0CB
S1130310B2E0EEEDFFE300E00BBF02C007900D92E8
S1130320A232B107D9F71DE1A2E2B2E001C01D92E9
S1130330A735B107E1F70E94D61B0C94EE1F0C946D
S113034000008FB7F894992708958FBF08951F93DD
S11303501FB7F89480913E02882399F581E0809339
S11303603E02EEE8FCE111928CE1E63AF807D9F797
S113037028E130E030930B0220930A028091141D8F
S11303809091151D892BD1F47897F093151DE09366
S1130390141D30938D1C20938C1C10926E1C109293
S11303A06D1C8091F40281608093F4028091C100FD
S11303B080688093C10010923E0203C00E94A7018E
S11303C0FACF812F99278FBF1F910895875A9440A0
S11303D089F48FB7F894992710923D028FBF2FB7F5
S11303E0F894332782B191E0892782B92FBF0E9404
S11303F0A701089510923C020895282F9FB7F894FE
S1130400E82FFF27ED5CF24E80818F3F81F4E0916D
S11304104A1DE21771F40BC020932D1D04C0FF2761
S1130420ED5CF24E208320934A1D20E007C025E0B6
S113043005C080912D1D8F3F91F7EECF892F99270D
S11304408FBF822F99270895882319F08CB5806473
S113045002C08CB58F7B8CBD08950F931F93982F8A
S11304601FB7F89480913F02823079F58091110290
S1130470891759F580910F0290E08F3F09F491E0BC
S11304809923E1F48F3F19F42FEF30E00EC0282FA9
S11304903327F901E45BF24E808180930F028F3F92
S11304A011F4809310028FEF80832093891C81E0E4
S11304B080933F0284E10E94FD0105C08FEF809389
S11304C0110210923F0201E001C000E0812F992740
S11304D08FBF1FB7F89480913F02882311F40E94C4
S11304E02402812F99278FBF90E0013009F491E015
S11304F081E09827892F99271F910F9108958823C8
S113050019F08CB5806802C08CB58F778CBD0895C6
S11305100F931F9380E00E9424020FB7F8941127D1
S1130520229A2398219A8CB580618CBD80E00E9428
S11305307F028DB581608DBD8CB5877F8CBD8CB5F8
S11305408B7F8CBD8CB58E7F8CBD81E00E94240294
S11305500FBF1F910F9108958FB7F8942091FE0358
S11305603091FF034091000450910104E091840014
S1130570F0918500B09B08C02F5F3F4F4F4F5F4FF6
S1130580E0918400F091850099278FBFC9017727F6
S113059066279F0144275527622B732B842B952BA9
S11305A00895AC01EFB7F894209184003091850050
S11305B0C901841B950B03968617970720F0B90190
S11305C06D5F7F4F02C0640F751F6115710511F4D3
S11305D061E070E06150704070938900609388001E
S11305E082E086BB80916F00826080936F008E2FC3
S11305F099278FBF0895DC01FC018191FD01918150
S1130600282F332795FF03C0C9018B960895C9018C
S1130610409608951F93182F882381F48091F50242
S11306209091F6020E94FB0220915F1C3091601CA5
S1130630280F391F3093601C20935F1C8FB7F894E8
S1130640992710930A1D8FBF8FE00E94FD011F910F
S11306500895FC0180A5662311F0816001C08E7F9E
S113066080A70895FC01828121819927982F8827EA
S11306703327822B932B85FF1FC087749C7C815466
S11306809848D1F4878146812FB7F8943327609135
S11306900C0270910D022FBF20E09927982F882714
S11306A05527842B952B8617970709F021E081E0C5
S11306B02827822F9927089580E090E00895FF92DB
S11306C00F931F93CF93DF93AC0180917D1C282F50
S11306D03327F901EE0FFF1FE158F34E808191811A
S11306E06091FF028417950769F4F901E151FD4F08
S11306F08081861709F464C0862F8F5F8093FF0280
S113070080831BC000E010E080E090E0CFE7DCE1F4
S1130710EFEEF2E0F62EF394DF01782F9C0188814E
S113072099818417950759F420937D1C8C91861721
S113073009F446C0F092FF02FC9200E828C08081D0
S1130740962F981B091710F4092F122F7F5FC901E8
S1130750019611962296319685309105F1F6753001
S1130760B1F410937D1CA12FBB27FD01EE0FFF1FD9
S1130770E158F34E51834083862F8F5F8093FF02AD
S1130780FD01E151FD4F8083A75AB34E1C92909115
S1130790FF02892F8F778F3779F40F3768F0EFEEE8
S11307A0F2E0292F207880818F6789132083319686
S11307B082E0E43FF807B9F780917D1C282F3327A6
S11307C0C901DF91CF911F910F91FF900895EF928E
S11307D0FF920F931F937C018FB7F8949927009190
S11307E0161D1091171D0F5E1E4F1093171D0093B9
S11307F0161D015111408FBF82E10E94FD01C80105
S1130800B7010E944F1F8A5D9E4F1F910F91FF9069
S1130810EF900895EF920F931F93AE2D99E0899F67
S1130820F0011124E353FD4F4083518362837383AA
S11308300483158326833783A17080858E7F8A2B5A
S1130840826080878DE00E94FD011F910F91EF90DF
S113085008957FB7F8946091B2002091F902309125
S1130860FA024091FB025091FC02B99B11C08091A5
S1130870B3009091B200280F311D411D511D2F5F0F
S11308803F4F4F4F5F4F290F311D411D511D04C074
S1130890260F311D411D511D872F99278FBFCA0176
S11308A0B9010895E1ECF0E080818F7B8083808141
S11308B08F7780831092F4021092410480818860C3
S11308C0808380818061808380818068808380E0F0
S11308D090E008959FB7F894282F332720FF02C093
S11308E0129801C0129A21FF02C0119801C0119AF6
S11308F022FF02C0109801C0109A892F99278FBF38
S11309000895DF92EF92FF920F931F938FB7F8949D
S1130910282F3327D22E9091B3008091B20047B391
S1130920981711F041FF02C02FBF71C080916B1C5A
S11309308823E1F10E942904E0900B1DF0900C1D26
S113094000910D1D10910E1D209106043091070495
S113095040910804509109046E197F09800B910B92
S1130960621773078407950720F010926B1C71E0DF
S11309701EC02E0D3F1D401F511F8091F902909102
S1130980FA02A091FB02B091FC02281B390B4A0B1E
S11309905B0B273E31054105510540F4822F22307F
S11309A010F070E005C070E082E002C070E086EEF6
S11309B0682F61508091B60083FDFCCF8091B20016
S11309C0681709F46F5F2091F9023091FA0240919F
S11309D0FB025091FC02DA01C9010196A11DB11D6F
S11309E0860F911DA11DB11D82179307A407B5079A
S11309F010F4622F60958091B60083FDFCCF609364
S1130A00B300DFBE772319F08CE00E94FD011F9133
S1130A100F91FF90EF90DF900895AFB7F894BB2744
S1130A20E1E0E0936B1C60930B1D70930C1D8093AD
S1130A300D1D90930E1D20930604309307044093DC
S1130A40080450930904AFBF0E94810408951F93C2
S1130A501FB7F8948091A604882339F40E94FD01FD
S1130A60882319F481E08093A604812F99278FBFEE
S1130A701F910895FA01422F6683672F77276583B4
S1130A80838721878091270290912802892B19F06E
S1130A9085E090E008952FB7F894332785E080939C
S1130AA02A0210922B02F0932602E093250282E0A0
S1130AB090E0909328028093270210922D021092C6
S1130AC02C02445F409329022FBF9FB7F894809172
S1130AD0731C882311F020E006C081E08093731C0E
S1130AE01092741C21E0892F99278FBF222329F0AB
S1130AF00E94270580E090E0089510922802109249
S1130B00270281E090E00895CF93DF93DB01FB019E
S1130B1035968183892F9927EB018D8384E686831B
S1130B208091E9029091EA02892B19F085E090E026
S1130B3029C07093EA026093E90244838091090218
S1130B40882319F480E090E01DC08681EB016D815B
S1130B507727762F662721813327622B732B1092F8
S1130B600902242FAD010E943A059927282F8823D2
S1130B7039F081E0809309021092EA021092E902AE
S1130B80822F9927DF91CF9108959FB7F894809190
S1130B901E1D8A3011F020E006C020E080917C1CEC
S1130BA0843009F421E0892F99278FBF222349F04B
S1130BB082E00E94FD018FB7F894992710922202D7
S1130BC006C08FB7F894992721E0209322028FBFA3
S1130BD008952FB7F89433278093C600E0ECF0E033
S1130BE08081806480832FBF0895FC0161157105A5
S1130BF019F481E090E0089580914F1D9091501D6B
S1130C00892B19F085E090E008957093221D60937C
S1130C10211DF093501DE0934F1D1092E30210929A
S1130C20E20281E0809341048091C000806480935B
S1130C30C0008091C10080648093C100808121E064
S1130C4030E03093E3022093E2020E94E90580E061
S1130C5090E00895809133028E7F809333028EE773
S1130C608093111D61E070E081E19DE10E94F50532
S1130C7099270895EAEFF0E06927660FF11DE60F62
S1130C80F11DC895982F802D3196C895902508950B
S1130C90982F80912E02882381F5992371F531E0F4
S1130CA030932E028091020280932F02209123021E
S1130CB0822F817080930B04809107029091080227
S1130CC09093310280933002809124028093320207
S1130CD032273170267EE32FFF27EE0FFF1FED5FD3
S1130CE0FD4F808191819093080280930702232B0A
S1130CF02093230285E00E94FD0108950F931F9322
S1130D00082F162F80917C1C8130D9F0813038F067
S1130D10823009F44AC0833009F00EC159C000235F
S1130D2009F43EC11092E5021092E4021092101DE3
S1130D301092121D10926A1C1092E1021092E002AD
S1130D401FC1002309F02CC18091E0029091E102BF
S1130D500E943A069093E1028093E00282E080933D
S1130D607C1C1093121D143409F0E6C00BC1869547
S1130D7004C08091230286958695817009F0DCC0B9
S1130D8080912302992311F0846001C082608093D2
S1130D90230280912302877E88608093230210922D
S1130DA024028FEF80930202FBC0002309F0C4C029
S1130DB060936A1C8091E0029091E1020E943A06DD
S1130DC09093E1028093E00283E080937C1CE8C06E
S1130DD08091101D8F3F09F4AFC0002309F447C070
S1130DE0823008F4A9C0E091E402EE2309F4D1C0F2
S1130DF04E2F4150E42FFF27EC51FD4F828199275C
S1130E00382F2227442311F4E2E002C0E42FE150FA
S1130E10FF27EC51FD4F82819927282B392B809194
S1130E20E0029091E1022817390709F085C080E0BB
S1130E300E94480630916A1C8091251D2091261D30
S1130E40982F9F5F963008F090E0921709F474C0D1
S1130E50E82FFF27EB5DF24E32838F5F8093251DD1
S1130E60863010F01092251D0E94270565C082303F
S1130E7008F44EC0E091E502FF27EC51FD4F82815A
S1130E80482F5527342F20912302822F869586954B
S1130E908695837099278130910519F00297F9F4AA
S1130EA00EC0277E206120932302442311F485E0A1
S1130EB001C080E0809324023093020210C080912C
S1130EC024028F3260F4E0910702F0910802E80FE7
S1130ED0F11D4083809124028F5F809324028091CE
S1130EE0E502E82FFF27EC51FD4F62818F5F80936D
S1130EF0E502833010F01092E50277278091E0023A
S1130F009091E1020E943A069093E1028093E002FC
S1130F108091E402E82FFF27EC51FD4F12838F5F8D
S1130F208093E402833010F01092E4028091101D4B
S1130F308F5F8093101D34C01092E5021092E4027A
S1130F4010927C1C1092101D1092121D10926A1C9B
S1130F501092E1021092E002809133028D7F80931F
S1130F60330281E00E94480680912202882331F0F6
S1130F7084E080937C1C0E94C50512C0002381F08C
S1130F8081E023CF80912302982F917080FDEFCED2
S1130F90F0CE8091E8029927382F222742E036CFFD
S1130FA01F910F9108951F920F920FB60F92112463
S1130FB02F933F934F935F936F937F938F939F935D
S1130FC0AF93BF93EF93FF938091C00087FF4DC011
S1130FD06091C600E091141DF091151D309771F1D8
S1130FE080916D1C90916E1CE80FF91F608301962F
S1130FF090936E1C80936D1C20918C1C30918D1CE1
S11310008217930790F11092151D1092141D809170
S1131010F402833039F08091C1008F778093C1004E
S11310201092F40282B192E0892782B930930B02C4
S113103020930A0289E00E94FD0117C06E3719F45B
S113104060E081E010C0809133026D3721F482604A
S1131050809333020AC081FF05C08D7F80933302E1
S113106080E2682780E00E947E06FF91EF91BF91A5
S1131070AF919F918F917F916F915F914F913F912C
S11310802F910F900FBE0F901F901895982F8D578A
S1131090823068F48091330281608093330280E26D
S11310A089278093D6048DE78093111D02C0909305
S11310B0111D61E070E081E19DE10E94F505992731
S11310C0089578941F920F920FB60F921124FF92F5
S11310D00F931F932F933F934F935F936F937F933C
S11310E08F939F93AF93BF93CF93DF93EF93FF932C
S11310F02091E2023091E3028091211D9091221D02
S11311002817390780F4E0914F1DF091501DE20F2C
S1131110F31F80812F5F3F4F3093E3022093E2025D
S11311200E94E905D4C01092501D10924F1D1092D8
S113113041048091C1008F7B8093C1008091330270
S113114080FF0EC08E7F809333028091D6048093FB
S1131150111D61E070E081E19DE10E94F505B7C0D9
S113116080911E1D843009F494C0853040F482308F
S113117021F18330B8F5813009F0A4C00DC0863068
S113118009F495C0863008F48BC0873009F496C002
S1131190883009F097C099C08091241D0E944608A8
S11311A0182F83E080931E1D6091241D8091651C7F
S11311B09091661C0E943A0610C080916C1C0E949B
S11311C04608182F83E080931E1D60916C1C80914B
S11311D0651C9091661C0E943A069093661C80934D
S11311E0651C6EC0FFB6F894E091201DFF27EE0F3A
S11311F0FF1FEE58F34E80810E944608082F10917D
S1131200201DC12FDD27FE01EE0FFF1FEE58F34E08
S113121060818091651C9091661C0E943A069093AF
S1131220661C8093651C2091691C2F5F2093691CA8
S1131230113039F580912A02E0912502F0912602BD
S1131240E80FF11DE0818F5F80932A0290912902BB
S1131250981730F482E08093731C40E050E002C0A1
S11312604E2F5527DE01AA0FBB1FFD01EF58F34E89
S11312708081823031F02F3F21F0AE58B34E4C9331
S113128003C084E080931E1D102F8F2D99278FBFDC
S113129017C08091651C0E944608182F85E00BC07A
S11312A08091661C0E944608182F86E004C00E94A4
S11312B02A06182F87E080931E1D02C088E003C011
S11312C0112329F089E080931E1D0E942705FF91B8
S11312D0EF91DF91CF91BF91AF919F918F917F91CA
S11312E06F915F914F913F912F911F910F91FF90BB
S11312F00F900FBE0F901F9018951F920F920FB66C
S11313000F9211248F938091C80087FF02C08091AF
S1131310CE008F910F900FBE0F901F901895789468
S11313201F920F920FB60F9211240F900FBE0F90C1
S11313301F90189578941F920F920FB60F92112454
S11313400F900FBE0F901F90189578941F920F92D4
S11313500FB60F9211240F900FBE0F901F90189587
S113136078941F920F920FB60F9211240F900FBE14
S11313700F901F90189578941F920F920FB60F92AA
S113138011248F939F9380919400909195009F9145
S11313908F910F900FBE0F901F90189578941F9205
S11313A00F920FB60F9211242F933F938F939F9315
S11313B02FB7F89433278091FD029091FE02019695
S11313C09093FE028093FD022FBF9F918F913F91D6
S11313D02F910F900FBE0F901F9018951F920F9290
S11313E00FB60F9211242F933F934F935F936F93F4
S11313F07F938F939F93AF93BF93EF93FF938091CA
S1131400B0008093B0008091B60081FDFCCF809144
S1131410B30099270196AA27BB272091F90230919E
S1131420FA024091FB025091FC02280F391F4A1F17
S11314305B1F2093F9023093FA024093FB0250930E
S1131440FC0278940E948104FF91EF91BF91AF91C7
S11314509F918F917F916F915F914F913F912F91C8
S11314600F900FBE0F901F90189578941F920F92B3
S11314700FB60F9211240F900FBE0F901F90189566
S113148078941F920F920FB60F9211240F900FBEF3
S11314900F901F90189578941F920F920FB60F9289
S11314A011242F933F938F939F93AF93BF932FB7A1
S11314B0F89433278091FE039091FF03A0910004D8
S11314C0B09101040196A11DB11D8093FE03909378
S11314D0FF03A0930004B09301042FBFBF91AF9109
S11314E09F918F913F912F910F900FBE0F901F905E
S11314F018951F93182F81E00E9424021EBD0DB47D
S113150007FEFDCF8EB599271F9108951F920F9264
S11315100FB60F9211248F929F92AF92BF92CF92E7
S1131520DF92EF92FF920F931F932F933F934F936A
S11315305F936F937F938F939F93AF93BF93CF9357
S1131540DF93EF93FF932EB5E091EB02F091EC0261
S1131550309739F08091040490910504E80FF91F45
S113156020838091040490910504019690930504CE
S11315708093040480E00E947F02C0910404D0910F
S113158005048091051D9091061DC817D90708F020
S113159044C00091D7041091D8048090EB0290903D
S11315A0EC022AE0A22EB12CAC0EBD1E8A159B05BE
S11315B008F45C016401CC0EDD1E7801EC0EFD1E06
S11315C015C00115110519F0F701808101C080E0F3
S11315D00E94790A8114910411F0F6018083219606
S11315E00894C11CD11C0894E11CF11CC50101978D
S11315F0C817D90730F381E00E947F020115110555
S113160031F00C0F1D1FF80180818EBD01C01EBC7E
S1131610D0930504C093040411C01092EC021092FC
S1131620EB021092D8041092D7041092061D109267
S1131630051D10920504109204048EB5FF91EF91DC
S1131640DF91CF91BF91AF919F918F917F916F91D6
S11316505F914F913F912F911F910F91FF90EF90C8
S1131660DF90CF90BF90AF909F908F900F900FBE60
S11316700F901F9018951F920F920FB60F9211247E
S11316808F938091B0008093B0008091B60081FD6B
S1131690FCCF8F910F900FBE0F901F90189521E0F3
S11316A02093071D2093000320918400309185002E
S11316B0BC01C9010E94D10208950F931F93CF93D7
S11316C0DF93182F0FB7F89480913F02882311F409
S11316D00E948802802F99278FBF8FB7F894C82F54
S11316E0DD272C2F80913F02882361F481E08093D1
S11316F03F021093891C84E10E94FD01CFBF80E06A
S113170090E021C0E12FFF27E45BF24E80818F3F00
S113171089F4E0911002E11789F40CC010930F02D0
S113172004C0FF27E45BF24E10831093100280E0A4
S113173090E002C085E090E02FBF05C080910F02C9
S11317408F3F79F7EBCFDF91CF911F910F910895E0
S11317508FB7F894282F3327922F80911102882372
S113176031F480913F02823011F42FBF13C09FBF28
S11317708FB7F894282F332780913F02882369F488
S113178082E080933F02109211022FBF0E948802D0
S1131790209A289A81E090E008952FBF80E00E946B
S11317A05D0B80E090E008954F925F926F927F927C
S11317B08F929F92AF92BF92CF92DF92EF92FF925D
S11317C00F931F93CF93DF93EC0180915E1C8823CA
S11317D009F052C180917B1C853009F04DC10E94F3
S11317E0A80B882309F448C180910204882309F0D6
S11317F043C178E2472E512C4C0E5D1E88A582FD14
S113180002C090E003C0F20192819F7080910D04A8
S1131810981781F090930D04289885EC8EBD0DB433
S113182007FEFDCF8EB590689EBD0DB407FEFDCFBB
S11318308EB5289A6CE0862E912C8C0E9D1E8A8182
S1131840298140E09927982F88273327822B932BCF
S113185087749C7C8154984809F441E0442301F145
S1131860289886E88EBD0DB407FEFDCF8EB51EBC4C
S11318700DB407FEFDCF8EB5289A99278F7190700D
S113188020910C0440914D1D240F312D311D43E056
S1131890359527954A95E1F7281739070CF4ECC0DC
S11318A0289882EC8EBD0DB407FEFDCF8EB589E07D
S11318B08EBD0DB407FEFDCF8EB5289A0E94AC02F2
S11318C07B018C01F201808184FD03C060E070E043
S11318D005C088818151B401680F711D289881E881
S11318E08EBD0DB407FEFDCF8EB51EBC0DB407FE34
S11318F0FDCF8EB5289A8F71893021F087E08093CF
S11319007B1CBAC08FB7F89499272F9A4091840012
S1131910509185004E555F4F8FBF2F98289880E6D1
S11319208EBD98810DB407FEFDCF8EB59EBDF92FF7
S1131930F250F73010F4EF2F01C0E7E02196DE01FA
S11319402E2F9D910DB407FEFDCF8EB59EBD215067
S1131950C1F7E1506E01CE0ED11CEF5F0894C11C9B
S1131960D11C4E195F093A01882477FC8094982C85
S11319706E0C7F1C801E911E61157105C1F0EB0178
S113198088819981AA81BB8186199709A809B90917
S11319908B83292F3A2F4B2F55272A839D014427C8
S11319A0552729838B2F9927AA27BB2788839F2F05
S11319B09E1BF60121916F010DB407FEFDCF8EB57C
S11319C02EBD9150B1F70DB407FEFDCF8EB5289A08
S11319D0289882EC8EBD0DB407FEFDCF8EB586E04F
S11319E08EBD0DB407FEFDCF8EB5289A6115710525
S11319F089F1EB018881E9802A81AB803327442770
S1131A005527542F432F322F22279927AA27BB2744
S1131A10B82FAA2799278827FF2400271127870191
S1131A20FF24EE248E299F29A02BB12BBB24CC2488
S1131A30DD248A299B29AC29BD29282B392B4A2B43
S1131A405B2B260D371D481D591DFB012083318357
S1131A5042835383E201888182608883F201638236
S1131A6074828582968286E080937B1C84E08093D6
S1131A705E1C80E090E002C085E090E0DF91CF91B1
S1131A801F910F91FF90EF90DF90CF90BF90AF9098
S1131A909F908F907F906F905F904F9008951F93C9
S1131AA0CF93DF93182FFA01422FDF011196ED0136
S1131AB08981218150E09927982F88273327822B09
S1131AC0932B87749C7C8154984809F451E05523E6
S1131AD031F481E4818388E8ED01898310A62FB76E
S1131AE0F894332780910C0290910D022FBF8087C8
S1131AF0892F992781872FB7F894332780910E0275
S1131B002FBF99278483158213876683872F99278C
S1131B1087838FE3828780911F1D8F5F80931F1DB2
S1131B2083834D3118F086E090E017C080917A1CD1
S1131B30882319F085E090E010C0435F4083F09360
S1131B40631CE093621C81E080937A1C10924E1D0A
S1131B508FE00E94FD0180E090E0DF91CF911F9122
S1131B600895CF93DF93FB01DB0116968683892FBB
S1131B709927ED01898386E083878091ED02909116
S1131B80EE02892B19F085E090E02BC0F093EE0271
S1131B90E093ED02435F40834D508091120288230D
S1131BA019F480E090E01DC08385ED0169817727F9
S1131BB0762F662726813327622B732B109212020D
S1131BC0242FAF010E944F0D9927282F882339F025
S1131BD081E0809312021092EE021092ED02822FA5
S1131BE09927DF91CF9108950F931F93CF93DF939C
S1131BF0182FEB01042FE82FFF27EE0FFF1FE351EF
S1131C00FD4F1182108210921202E091ED02F091C8
S1131C10EE02309721F08091FD0380FF0EC081E039
S1131C208093120203C086E10E94FD011123B9F4DE
S1131C30602FCE010E94E60112C020812D5033276F
S1131C4067817727762F662786819927682B792BDA
S1131C50AF0183850E944F0D882341F3E4CFDF91C8
S1131C60CF911F910F910895809136028C3118F015
S1131C704CE150E002C0482F55278CE1EAE1F4E042
S1131C8011928A95E9F7909136028091340220E00E
S1131C9030E0AAE1B4E00FC0E82FFF27ED5FFC4F6E
S1131CA0E081992329F08F5F8A3F09F480E0915005
S1131CB0ED932F5F3F4F2417350771F7909336024A
S1131CC0809334024CE16EE074E08FEF9FEF0E944A
S1131CD08405882319F088E00E94FD0108951F936C
S1131CE0182F80913702813049F4809136028C3864
S1131CF028F082E0809337020E94340E8FB7F89464
S1131D00282F3327909136029A3FA8F48091350208
S1131D10E82FFF27ED5FFC4F10838F5F8093350220
S1131D208A3F11F4109235029F5F909336022FBFC1
S1131D3080E090E003C02FBF8FEF9FEF1F910895C5
S1131D408FB7F894282F332780913702823021F4FB
S1131D502FBF80E090E0089590E0809136028823C0
S1131D6009F491E0992321F02FBF81E090E00895D8
S1131D7082E0809337022FBF0E94340E80E090E00F
S1131D800895662359F480913602882319F00E943D
S1131D90340E089581E080933702089588E00E940C
S1131DA0FD010895EF92FF920F931F93CF93DF935A
S1131DB0182F7B01042FE82FFF27EE0FFF1FE75199
S1131DC0FD4F1182108210920902A091E902B09194
S1131DD0EA02109721F08091231D80FF0EC081E05C
S1131DE08093090203C087E00E94FD011123C9F416
S1131DF0602FC7010E94C10E14C0FD0135962481D5
S1131E003327ED016D817727762F66278181992706
S1131E10682B792BAD0186810E943A05882331F322
S1131E20E2CFDF91CF911F910F91FF90EF90089532
S1131E30FF920F931F93CF93DF9380910204882323
S1131E4009F40CC10E94A80B882309F407C18FB7B9
S1131E50F8949927C0910103D09102038FBF109287
S1131E60020428988FE88EBD0DB407FEFDCF8EB511
S1131E701EBC0DB407FEFDCF8EB5289A982F082FEF
S1131E80112700FF0CC080915E1C833011F0873055
S1131E9031F485E080937B1C88E080935E1C02FF14
S1131EA058C080915E1C863019F410925E1C03C0E9
S1131EB0882309F04EC09430D9F5289886E88EBD61
S1131EC00DB407FEFDCF8EB51EBC0DB407FEFDCFCD
S1131ED02EB5289A2F7180914D1D982F9695969521
S1131EE0322F391B830F80934D1DE091F702F0913F
S1131EF0F80280A58B7F886080A722A70E94AC028D
S1131F00E091F702F091F80220A5226020A7C61BF9
S1131F10D70B27979E01442737FD4095542F260F52
S1131F20371F481F591F23A734A745A756A70EC01C
S1131F30E091F702F091F80280A5877F80A7E091F5
S1131F40F702F091F80280A58D7F80A785E0809349
S1131F505E1C03FF83C080915E1C843009F04BC07B
S1131F6085E080937B1C10925E1C80910A04833070
S1131F7019F410920A0472C0E091081DF091091D31
S1131F80828121819927982F88273327822B932BAD
S1131F9085FF29C087749C7C8154984821F58781EA
S1131FA026819927982F88273327822B932B8F5F9D
S1131FB09F4FC9F090E080910003882309F491E0D9
S1131FC0992389F012E01093071D81E080930003A8
S1131FD0809184009091850061EE72E00E94D102AC
S1131FE010930A043BC010920A041092611C80E012
S1131FF00E940A0333C0853089F580917B1C8730A9
S113200091F4289882EC8EBD0DB407FEFDCF8EB5F9
S113201086E08EBD0DB407FEFDCF8EB5289A85E00F
S113202080937B1C17C020910C04289886E88EBDF1
S11320300DB407FEFDCF8EB51EBC0DB407FEFDCF5B
S11320408EB5289A8F71922F96959695891B280F95
S113205020930C0489E080935E1C08C090915E1C60
S1132060992309F47BC2993009F0B6C1289880E21B
S11320708EBD0DB407FEFDCF8EB51EBC0DB407FE9C
S1132080FDCF8EB5282F3327922F233008F43CC37D
S11320902A3208F039C31EBCE091F702F091F8022D
S11320A020832091F7023091F802592F5250573073
S11320B010F4452F01C047E02F5F3F4F942FF901E3
S11320C060E070E00DB407FEFDCF8EB51EBC8083CA
S11320D081916827062E6295607F6025072E762FF2
S11320E062956F700626669576276727660F660FDA
S11320F0660F6025915031F74150D901A40FB11DED
S11321004F5F1196E091F702F091F8028181282F38
S11321103327277030702230310509F491E0992378
S1132120B9F080910A04823081F48381E091081D22
S1132130F091091D9381891741F490E02230310513
S113214009F091E081E098270EC080E090E00DC096
S11321508FB7F894282F332790E08091041D8330A3
S113216008F491E02FBF892F9927892B09F4CCC259
S1132170952F941B18C00DB407FEFDCF8EB51EBC61
S11321808C938D916827062E6295607F6025072EBB
S1132190762F62956F700626669576276727660FF9
S11321A0660F660F6025915030F70DB407FEFDCF22
S11321B08EB51EBC9B012827022E2295207F202548
S11321C0032E322F22952F7002262695322723279D
S11321D0220F220F220F20250DB407FEFDCF8EB54E
S11321E01EBC2827022E2295207F2025032E322F65
S11321F022952F700226269532272327220F220F9D
S1132200220F20250DB407FEFDCF8EB5E091F70215
S1132210F091F80281A7289A55E0F52EF0927B1CE4
S113222010925E1C232B09F095C1C091F702D09146
S1132230F802898160E08770823009F461E0062F3A
S1132240112780910A048230A9F480916F008D7F58
S113225080936F0010920003602F8091081D90916D
S1132260091D0E94290310920A041092611C80E047
S11322700E940A03002309F0AAC0CE010E9432037F
S1132280882399F0F092710482E080937204109292
S113229073048B818093740481E794E00E94D40BCF
S11322A0882319F483E080930A0400918400109138
S11322B08500CE010E943203882311F0045E1C4F76
S11322C010938B1C00938A1C80918400909185004C
S11322D0081B190BC801101611066CF42091611C1F
S11322E0222331F40E944F0B80E88093611C03C0C9
S11322F020682093611CCE010E94FB022091781C6F
S11323003091791C280F391F3093791C2093781C45
S1132310898528859927982F88273327822B932B03
S11323200E945F03E82FFF27E75AF34E908191FD47
S113233009C08091771C803128F48F5F8093771CCB
S113234092609083898528859927982F8827332739
S1132350822B932B0E945F039B81A82FBB27FD0137
S1132360E75AF34E808180FF0EC0FD01E25DF24E1C
S11323708081981751F48091131D8F3F41F18F5F35
S11323808093131D24C081608083A25DB24E9C9310
S1132390FFB6F8948091041D8330B0F4E0917E1C64
S11323A0E80FE33008F0E350FF27EE0FFF1FE0567D
S11323B0FB4F00811181D183C0838F5F8093041D03
S11323C080E10E94FD01E8018F2D99278FBFD093F2
S11323D0F802C093F702B2C0892F8150833008F00D
S11323E08BC081508230E0F430917B1C3130C1F4D9
S11323F020E080910003882309F421E0222381F066
S11324002F9883E08093071D30930003809184000C
S1132410909185006BE273E00E94D10282E057C084
S1132420933091F580917B1C833009F087C00E9422
S1132430A80B882349F128988FE88EBD0DB407FEB8
S1132440FDCF8EB51EBC0DB407FEFDCF8EB5289A08
S11324508091810080648093810080E286BB8091BA
S11324606F00806280936F00289882EC8EBD0DB45B
S113247007FEFDCF8EB586E08EBD0DB407FEFDCF01
S11324808EB5289A84E023C080915E1C81508230EE
S113249000F580917B1C8530E1F40E94A80B882311
S11324A0C1F0289882EC8EBD0DB407FEFDCF8EB529
S11324B083E08EBD0DB407FEFDCF8EB5289A8091C2
S11324C06F008F7D80936F001092020483E08093ED
S11324D07B1C90915E1C913041F480917B1C833075
S11324E0C9F52F9A90937B1C25C0923039F58091C1
S11324F07B1C833079F51EC0973001F50E94A80B30
S11325008823E1F090914B1D289888EC8EBD0DB482
S113251007FEFDCF8EB590669EBD0DB407FEFDCFC0
S11325208EB5289A80917B1C853021F484E08093B9
S11325307B1C04C088E080935E1C04C080915E1CF8
S1132540883041F410925E1C81E10E94FD018EE00E
S11325500E94FD0180915E1C882331F580917B1CD3
S11325608530F9F4809102048823D9F480910A0417
S11325708823B9F48091611C882399F490E08091B8
S11325800003882309F491E0992359F080917A1C7F
S1132590813039F48FE00E94FD0180915E1C882314
S11325A019F480E00E942D0280910003823009F02A
S11325B09EC010920003F090071DF81609F46CC039
S11325C023E0F21609F477C031E0F31609F08FC066
S11325D020918A1C30918B1C8091840090918500FD
S11325E04091611C403859F41092611C80917A1C0E
S11325F0813009F07CC08FE00E94FD0178C0E901C0
S1132600C81BD90B47FF03C01C161D06F4F000912C
S11326101C1D10911D1D80910A048823B1F4C8016A
S11326200E94D40B9927882359F460E0C8010E94C2
S11326302903F0920A041093091D0093081D28C071
S11326409927182F882321F101C015E02091611CDE
S1132650822F99278F77019759F42078226020934D
S1132660611C80E198E00E94E7030E944F0B3FC089
S113267027FF0AC01C161D063CF480E88093611CE9
S1132680CE010E944F0B02C01092611C812F10C01A
S113269083E08093611C2BC08091131D8F3F19F040
S11326A08F5F8093131D10920A041092611C80E0C6
S11326B00E940A031CC080917B1C823019F4F092A2
S11326C07B1C13C080915E1C863079F410925E1CD2
S11326D0289881E88EBD0DB407FEFDCF8EB51EBCD3
S11326E00DB407FEFDCF8EB5289A0E9468148FB7EB
S11326F0F894282F33278091641C813061F081E0A5
S11327008093641C2FBF99CB289A85E080937B1C0F
S113271010925E1C1FCF1092641C2FBFDF91CF91CB
S11327201F910F91FF9008958FB7F894282F3327A6
S11327308091641C81508093641C803811F02FBFF9
S1132740089581E08093641C2FBF0E94180F0895A0
S1132750AF92BF92CF92DF92EF92FF920F931F93AB
S11327605B016C016091D50261FF1FC02091CD0215
S11327703091CE024091CF025091D002E090D1022C
S1132780F090D2020091D3021091D402D601C50177
S1132790821B930BA40BB50B8E159F05A007B107E5
S11327A020F0EDECF2E090E021C0E6EDF2E0609183
S11327B0DE0261FF81C02091D6023091D7024091A0
S11327C0D8025091D902E090DA02F090DB02009135
S11327D0DC021091DD02A21AB30AC40AD50AAE14AF
S11327E0BF04C006D10608F467C091E060FF04C0CE
S11327F080858D7F808708C02E0D3F1D401F511F8F
S11328002083318342835383913009F055C02FB71D
S1132810F89433278091641C8F5F8093641C2FBFCE
S113282080915F1C9091601C9C01F3E03695279584
S1132830FA95E1F7821B930B9093601C80935F1CC5
S11328408091781C9091791C9C01E3E03695279542
S1132850EA95E1F7821B930B9093791C8093781C83
S11328608091131D982F969596959695891B809324
S1132870131D20910304422F4695469546953091A9
S1132880771C431741F4822F992787709070892B06
S113289011F0215002C0341B230F20930304E9E5F7
S11328A0FCE180818D7F81938CE1EE35F807C9F7D7
S11328B01092771C0E9494138DE00E94FD011F91D9
S11328C00F91FF90EF90DF90CF90BF90AF9008955D
S11328D08FB7F894282F33278091641C882329F01C
S11328E080688093641C2FBF089581E08093641CEA
S11328F02FBF0E94180F089578941F920F920FB65D
S11329000F9211242F933F934F935F936F937F9371
S11329108F939F93AF93BF93EF93FF938091840022
S11329209091850020918600309187008FB7F894AC
S11329309927309302032093010321E0209302049A
S11329408FBF0E946814FF91EF91BF91AF919F9147
S11329508F917F916F915F914F913F912F910F9044
S11329600FBE0F901F90189578941F920F920FB678
S11329700F9211242F933F934F935F936F937F9301
S11329808F939F93AF93BF93EF93FF9380916F00C7
S11329908D7F80936F0078949FB7F89480910003A3
S11329A0813019F482E080930003892F99278FBF27
S11329B00E946814FF91EF91BF91AF919F918F9105
S11329C07F916F915F914F913F912F910F900FBE27
S11329D00F901F9018951F938FB7F8949927209103
S11329E0641C2F5F2093641C8FBF80917A1C882302
S11329F011F015E026C081E080930F1D80915E1CCC
S1132A008823E1F480917B1C813049F490E080912B
S1132A100003882309F491E0992381F005C08530EF
S1132A2019F489E090E00CC083E080935E1C0E945E
S1132A30681484E080937A1C10E003C085E090E081
S1132A40182F0E949413812F99271F9108952F9274
S1132A503F924F925F926F927F928F929F92AF922A
S1132A60BF92CF92DF92EF92FF920F931F93CF9377
S1132A70DF93CDB7DEB729970FB6F894DEBF0FBE4C
S1132A80CDBFE82FFF27E731F10508F059C6EA5911
S1132A90FF4FEE0FFF1F0590F491E02D09948091F4
S1132AA0231D882309F44CC690E011E053C18091A2
S1132AB0FD03882309F444C690E011E012C68FB7E1
S1132AC0F8941092A60420911E1D40E0283009F4C9
S1132AD041E030E0293009F431E0442311F4332398
S1132AE051F010921E1DE091201DFF27EE0FFF1FD5
S1132AF0EF58F34E108299278FBF442311F43323E8
S1132B0019F180916C1C8F5F80936C1C8091241D43
S1132B108334A1F49FB7F8942091261D8091251D3C
S1132B20821741F0822F8F5F8093261D863010F02C
S1132B301092261D892F99278FBF0AC0A0E0442335
S1132B4009F4A1E071E006C0222311F010E069C08D
S1132B50A0E070E08FB7F8949927209122028FBFEC
S1132B60222341F08FB7F89499272AE020931E1D61
S1132B708FBF43C08FB7F89499276091711C40911F
S1132B80731C8FBF8FB7F894282F332750E0909190
S1132B90251D8091261D981709F451E02FBF552358
S1132BA049F5662339F55FB7F89482E08093711C88
S1132BB08FB7F894282F332740E09091251D8091FA
S1132BC0261D981709F441E02FBF442311F080E03B
S1132BD006C0E091261DFF27EB5DF24E82818093B3
S1132BE0721C852F99278FBF83E48093241D109234
S1132BF0201D0BC04150423010F010E007C085E4A6
S1132C008093241D81E08093201D11E0772349F0F7
S1132C108FB7F8949927A0932B028FBF84E00E946A
S1132C20FD0180911E1D8A3019F40E94C50588C5D6
S1132C30112309F485C52FB7F89433271092661C25
S1132C401092651C1092691C81E080931E1D2FBF99
S1132C500E942A06882309F473C58FB7F89499272C
S1132C6029E020931E1D8FBF0E94270569C50E947D
S1132C70520480913702882309F062C583E192E00F
S1132C809093541D8093531D8FB7F894992721E096
S1132C90209337028FBF87E00E946A040E94EB14DE
S1132CA04FC583E093C08091C100877F8093C100AA
S1132CB08091C1008F7E8093C1008FB7F8949927CB
S1132CC0109237027CC410922802109227028FB708
S1132CD0F894992740912B028FBF80912C02811187
S1132CE043E0209125023091260280912D02882311
S1132CF009F026C580910902882309F021C5609155
S1132D00E9027091EA026217730709F019C550C00D
S1132D108FB7F89499272091300230913102409175
S1132D200B048FBF8FB7F894E42FFF27EE0FFF1F1C
S1132D30ED5FFD4F3183208320912302442311F062
S1132D402B7F01C02D7F2093230210922E029927FE
S1132D508FBFF6C42091231D812F8223C1F0E92F58
S1132D60FF27EE0FFF1FE751FD4F40815181118274
S1132D701082812F809528232093231D992339F4D1
S1132D8063E0CA010E94C10E110F91E0E3CF9F5F7F
S1132D90983008F0D5C4110FDDCF80910902E82FD7
S1132DA0FF27EE0FFF1FE751FD4F6081718141E066
S1132DB00E94D20EC5C44CE16EE074E08FEF9FEF29
S1132DC00E948405882309F4BBC488E00E94FD01A5
S1132DD0B7C480913D02882309F0B2C4E3EBF4E068
S1132DE040E050E06EE87CE120910A0230910B0251
S1132DF0265030408F01065F1F4F08C0DB018D91C4
S1132E00BD01D8018D938D014F5F5F4F421753076A
S1132E10A8F380910002909101028183892F992760
S1132E208093B30480913802909139020196909373
S1132E3039028093380201978093B604892F992729
S1132E4082831092B80414821092BA0416821092EB
S1132E50BC0410868091CF04877F84608093CF0464
S1132E608FEF8093D1044CE167EA74E08FEF9FEF1A
S1132E700E94B10D882309F063C481E080933D0270
S1132E805FC40E94A7015CC41FB7F89480913C0200
S1132E90882301F590913B0280913A029817D1F072
S1132EA06FE2969FB001112467527B4F4CE18FEF84
S1132EB09FEF0E94B10D882369F481E080933C0266
S1132EC080913B029927019660E870E00E94631F9D
S1132ED080933B02812F99273BCF8091DF02882387
S1132EE061F52091181D3091191D40911A1D5091C2
S1132EF01B1DEFB7F894FF2760910B1D70910C1DFB
S1132F0080910D1D90910E1DE0900604F090070431
S1132F1000910804109109046E0D7F1D801F911FFC
S1132F20EFBF2093181D3093191D40931A1D509321
S1132F301B1D1092DF020E940D050E94290469C026
S1132F400E9429045B016C018FB7F89499271092B1
S1132F506B1C8FBF8091D50281FF24C08091CD026C
S1132F609091CE02A091CF02B091D002860175015A
S1132F70E81AF90A0A0B1B0B2091D1023091D202F4
S1132F804091D3025091D4022E193F09400B510BAA
S1132F902F3F0FEF30070FEF40070FE7500711F0F7
S1132FA061E005C02FEF3FEF4FEF5FE760E08091F6
S1132FB0DE0281FF24C08091D6029091D702A091B5
S1132FC0D802B091D90286017501E81AF90A0A0BF0
S1132FD01B0BD801C701E090DA02F090DB020091EC
S1132FE0DC021091DD02E81AF90A0A0B1B0BE21647
S1132FF0F306040715071CF4A801970103C0662310
S113300009F49EC312161306140615062CF0C60105
S1133010B5010E94A81394C32093181D3093191D61
S113302040931A1D50931B1D81E08093DF02C6015B
S1133030B5010E940D0584C390917A1C892F845098
S1133040823010F410927A1C943009F079C30E94F3
S11330502904AB01BC01EE240AEF10E020E030E0CB
S113306080E00E940A040E945204882309F068C385
S11330700FB7F89411270E946A0410920B02109261
S11330800A028AE00E94FD010FBF5AC38FB7F89469
S1133090992710910A1D8FBF80917A1C823011F4F8
S11330A0112339F080914E1D8F5F80934E1D863021
S11330B020F083E080937A1C40C08FB7F89499275E
S11330C02091641C2F5F2093641C8FBF2091621C8D
S11330D03091631C3093F6022093F5028091611CB9
S11330E08823D1F490E080910003882309F491E0CF
S11330F0992391F030931D1D20931C1D81E0809332
S1133100611C86EB93E20E94E7030E944F0B82E06E
S113311080937A1C10E00AC080914E1D853011F412
S113312083E001C081E080937A1C15E00E9494132F
S113313080917A1C833009F003C310927A1C209189
S1133140621C3091631C80911202882309F0F8C23A
S11331506091ED027091EE026217730709F0F0C2FC
S1133160412FECC28FB7F894282F33278091041D88
S1133170882309F4B4C2E0917E1CFF27EE0FFF1FE1
S1133180E056FB4FA080B1802FBF8501045F1F4F25
S1133190D5017C91F50182858F3309F06BC163857C
S11331A0878126819927582F44273327422B532B75
S11331B08FB7F894992720910C0230910D028FBF9C
S11331C04217530721F04F5F5F4F09F053C1663038
S11331D009F050C1793209F04DC14091000250917B
S11331E00102F501848525859927982F882733279F
S11331F0822B932B4817590709F43CC1B2E1CB2E1B
S1133200D12CCA0CDB1C8289A3E1EA2EF12CEA0C36
S1133210FB1C23899927982F88273327822B932BEC
S11332204817590709F426C12FB7F894332782B1F8
S113323094E0892782B92FBF80913A022FE2829FBE
S1133240900111242B513B4F3093761C2093751C15
S11332509927019660E870E00E94631FAC01809199
S11332603B0299274817590711F040933A02232B40
S113327019F4AA24BB24FEC0D5011E96F501868547
S1133280A501415F5F4F27859927982F882733270A
S1133290822B932B8F5F9F4F09F472C0F5018089B5
S11332A021899927982F88273327822B932B892BC1
S11332B009F066C0828923899927982F88273327A4
S11332C0822B932B892B09F05BC08489258999274C
S11332D0982F88273327822B932B892B09F050C0F2
S11332E04FB7F8948091000290910102E091751C0F
S11332F0F091761C8183892F99278083E091751C36
S1133300F091761C8FEF83838283E091751CF0919A
S1133310761C83E085831482F501848525859927AD
S1133320982F88273327822B932BE091751CF091DB
S1133330761C8783892F99278683F50186852785BF
S11333409927982F88273327822B932BE091751C7C
S1133350F091761C8187892F9927808720E030E0BF
S1133360D50156968D91E091751CF091761CE20F73
S1133370F31F82872F5F3F4F2231310599F774C0C5
S11333808C91DA012C919927982F88273327822B47
S1133390932B8F5F9F4F09F06DC0F80184812581C5
S11333A09927982F88273327822B932B892B09F46D
S11333B061C04FB7F8948091000290910102E091AE
S11333C0751CF091761C8183892F99278083E09165
S11333D0751CF091761C8FEF83838283F8018481BE
S11333E025819927982F88273327822B932B0197A0
S11333F0E091751CF091761C8583892F992784832D
S1133400D6018C91F70120819927982F882733279B
S1133410822B932BE091751CF091761C8783892F66
S113342099278683F801808521859927982F8827F5
S11334303327822B932BE091751CF091761C8187A6
S1133440892F9927808720E030E0D8011A968D9142
S1133450E091751CF091761CE20FF31F82872F5FB9
S11334603F4F2231310599F7842F99278FBF8BE085
S11334700E94FD019FB7F89480917E1CE82FFF27DE
S1133480EE0FFF1FE056FB4FB182A0828F5F809347
S11334907E1C833010F010927E1C8091041D81509C
S11334A08093041D892F99278FBF5CCE80910F1DB7
S11334B0813069F40E942904AB01BC01EE2404E6C6
S11334C010E020E030E081E00E940A0439C182303B
S11334D009F036C18091DE028D7F8093DE0230C117
S11334E0FFB7F983F89420903D0430903E04409057
S11334F03F04509040046624772488248EE4A82E48
S113350003E8B02ECC24DD24EE24FF2400E010E0F8
S1133510222D332D442D552D662D772D882D90E0A9
S11335200E94C71D2A833B834C835D836E837F8304
S113353088879987822E932EA42EB52E24013501D7
S113354000E20E94C51EA22EB32EC42ED52EA301C6
S1133550920156954795379527952A0D3B1D4C1D8D
S11335605D1D57FF05C05F772F5F3F4F4F4F5F4F84
S113357020933D0430933E0440933F045093400411
S1133580E9808E2D99278FBF8FB7F89499273093B0
S1133590171D2093161D13C08FB7F8949927109206
S11335A0EC021092EB021092D8041092D7041092FD
S11335B0061D1092051D1092050410920404C8CB38
S11335C02FB7F89433278091891C8093110282E0ED
S11335D080933F022FBF80911102882309F0B0C06D
S11335E0209A289A80917B1C882309F075C08EEF5D
S11335F091E0019701960197E1F716982F9886E0DC
S113360090E0019701960197E1F7169A289883ECC8
S11336108EBD0DB407FEFDCF8EB51EBC0DB407FEE6
S1133620FDCF8EB5289A289882EC8EBD0DB407FE86
S1133630FDCF8EB588E08EBD0DB407FEFDCF8EB5EF
S1133640289A8EEF91E0019701960197E1F7289867
S11336508EEC8EBD0DB407FEFDCF8EB58DE48EBD10
S11336600DB407FEFDCF8EB5289A289889EC8EBD3F
S11336700DB407FEFDCF8EB587EC8EBD0DB407FEED
S1133680FDCF8EB5289A289885EC8EBD0DB407FE23
S1133690FDCF8EB580E88EBD0DB407FEFDCF8EB58F
S11336A0289A10920D048BE080934B1D289888EC87
S11336B08EBD0DB407FEFDCF8EB58BE68EBD0DB469
S11336C007FEFDCF8EB5289A2F9A81E080937B1C4C
S11336D080E00E942D0234C00E94681431C02FBFC4
S11336E02FC02091FD03812F8223C1F0E92FFF27F2
S11336F0EE0FFF1FE351FD4F408151811182108273
S1133700812F809528232093FD03992339F463E0C6
S1133710CA010E94E601110F91E0E3CF9F5F983048
S113372078F4110FDECF80911202E82FFF27EE0FFD
S1133730FF1FE351FD4F6081718141E00E94F40D50
S113374029960FB6F894DEBF0FBECDBFDF91CF919F
S11337501F910F91FF90EF90DF90CF90BF90AF90AB
S11337609F908F907F906F905F904F903F902F909D
S1133770089580912D1D8F3FB1F0282F3327F90133
S1133780ED5CF24E808180932D1D8F3F11F4809368
S11337904A1D8FEF80832F3F31F0822F0E9427151F
S11337A081E090E0089580E090E00895CFEFD1E2C9
S11337B0DEBFCDBFFFB6F89447E150E06FEF70E095
S11337C083E39DE10E94481F8FEF80932D1D80931A
S11337D04A1D56985E9854985C9880916F008F7D2E
S11337E080936F00209A289A279A2F980E9A169AF7
S11337F082E494E09093F8028093F70210920C0410
S11338008AE580934D1D81E08093810080E280935E
S1133810B60083E08093B10080918400909185008C
S11338204AE720918400309185002817390708F46D
S11338304150442311F0C901F4CF9091B20080911A
S1133840B2008917E1F320918400309185009091B2
S1133850B2008091B2008917E1F3809184009091C5
S11338608500821B930B409635E0969587953A9593
S1133870E1F79093701C80936F1C1092B1008091BB
S1133880B10080938100809181008093B6001092F2
S1133890B20010928500109284008FEF87BB87B32B
S11338A086BB8091B6008571E1F70A9A099A089A55
S11338B0129A119A109A18B88FEF87B90C98149825
S11338C0109285001092840080916F008160809333
S11338D06F0080918100887F8260809381001092C4
S11338E09500109294008091710081608093710022
S11338F080919100887F82608093910081E085BFF0
S11339000E94B91B8823E1F78FEF80934C1D80E060
S11339100E945D0B20910002309101022F5F3F4F06
S1133920C901AA27BB2780933D0490933E04A0932A
S11339303F04B09340048FEF9FEF9093801C8093DB
S11339407F1C9093821C8093811C9093841C809391
S1133950831C9093861C8093851C9093881C809371
S1133960871C809100028295807F80931F1D80E4D4
S113397092E09093A1048093A0048F969093A30463
S11339808093A2048EE992E09093A5048093A4040A
S11339908091B60080628093B6008091B60081FD6C
S11339A0FCCF82E08093B0008091B60080FDFCCF14
S11339B083E08093B1008091B60083FDFCCF86EE56
S11339C08093B300809170008260809370000E94A5
S11339D0810412E006E060916F1C7091701C8827CE
S11339E099272CE0660F771F881F991F2A95D1F716
S11339F020E031EE40E050E00E94761F215030403C
S1133A002093C400832F99278093C5001093C0008E
S1133A100093C2001092C1002093CC008093CD008B
S1133A201093C8000093CA001092C90084E490E087
S1133A309093681C8093671C1092711C1092731CE5
S1133A4010921E1D1092691C1092241D10926C1C61
S1133A501092661C1092651C1092A6041092201DF0
S1133A601092E5021092E40210927C1C1092101D38
S1133A701092121D10926A1C1092E1021092E00240
S1133A801092261D1092251D0E94B91B8823E1F770
S1133A908F2D99278FBF789481E00E94FD018FB705
S1133AA0F894482F552758C0809170009927837047
S1133AB09070892B19F4E5E0F0E014C08091B60011
S1133AC08A71E1F78091B3009091B200891B8C3028
S1133AD038F08091B200853F18F4E3E0F0E002C0D2
S1133AE0E2E0F0E080916E00867009F580916F004D
S1133AF08E72E9F4809171008E72C9F40CB407FCE3
S1133B0016C08091C100807C91F48091C900807CB2
S1133B1071F48091BC0082FD0AC080917A0087FF15
S1133B2003C081E090E005C085E090E002C080E041
S1133B3090E023B78E1708F4E82FFF27E650FD4FD7
S1133B40C895E02D207F2160E22BE3BF789488950F
S1133B50F89483B78E7F83BF80912D1D8F3F09F426
S1133B60A3CF282F3327F901ED5CF24E8081809397
S1133B702D1D8F3F11F480934A1D8FEF80832F3FBB
S1133B8009F492CF4FBF822F0E94271588CFACE251
S1133B90B0E0EDECFDE10C94B71F222E332E442E41
S1133BA0552E662E772E882E992EFE013196A8E08A
S1133BB01192AA95E9F729823A824B825C826D823E
S1133BC07E828F829886FE013996B8E01192BA956A
S1133BD0E9F7A986BA86CB86DC86ED86FE860F8752
S1133BE0188B89819A81AB81BC8189A79AA7ABA7DD
S1133BF0BCA77C018D018FEF9FEFA0E0B0E0E8222D
S1133C00F9220A231B2389A59AA5ABA5BCA51D01EE
S1133C104424552489859A85AB85BC858DA39EA3B0
S1133C20AFA3B8A75C016D018FEF9FEFA0E0B0E0F8
S1133C30A822B922CA22DB228DA19EA1AFA1B8A5D8
S1133C403D0188249924C801B701A60195010E9469
S1133C50981F69A37AA38BA39CA3C801B701A401ED
S1133C6093010E94981F7B018C01C201B101A6013E
S1133C7095010E94981F5B016C01C201B101A4016E
S1133C8093010E94981F3B014C01EA0CFB1C0C1D84
S1133C901D1D89A19AA1ABA1BCA19D014427552753
S1133CA02E0D3F1D401F511F2A153B054C055D0578
S1133CB040F480E090E0A1E0B0E0680E791E8A1E36
S1133CC09B1ECA01AA27BB27860D971DA81DB91DD7
S1133CD08D8F9E8FAF8FB8A3A9013327222789A187
S1133CE09AA1ABA1BCA1A070B070280F391F4A1FC4
S1133CF05B1F298F3A8F4B8F5C8FA98CBA8CCB8C2E
S1133D00DC8CED8CFE8C0F8D18A1FE01719698E071
S1133D1011929A95E9F7ED8AFE8A0F8B188F2D81FF
S1133D203E814F8158856DA17EA18FA198A50E94E7
S1133D30981F3B014C012D853E854F85588969A507
S1133D407AA58BA59CA50E94981F2D893E894F8931
S1133D50588D260F371F481F591F260D371D481D24
S1133D60591D2D8B3E8B4F8B588F6D887E888F8885
S1133D70988C2A2D3B2D4C2D5D2D662D772D882D6D
S1133D80992DE2E1AC960C94D31FA0E1B0E0EBECEA
S1133D90FEE10C94B71F222E332E442E552E662E90
S1133DA0772E882E992E002309F466C088E0FE0140
S1133DB0319611928A95E9F729833A834B835C8380
S1133DC06D837E838F829887E0E2E01B1E16CCF51C
S1133DD02D813E814F815885602F772767FD70952F
S1133DE0DA01C901062E04C0B695A7959795879563
S1133DF00A94D2F78D879E87AF87B88B04C0220FB1
S1133E00331F441F551FEA95D2F789819A81AB81EC
S1133E10BC8104C0B695A795979587956A95D2F706
S1133E20282B392B4A2B5B2B29873A874B875C87B6
S1133E3029843A844B845C846D847E848F8498883E
S1133E401BC01D861E861F86188A2E2F332727FD2A
S1133E503095309521953F4F8D819E81AF81B885F6
S1133E6004C0B695A795979587952A95D2F7898723
S1133E709A87AB87BC87DCCF222D332D442D552D5B
S1133E80662D772D882D992DE2E160960C94D31F31
S1133E90DC0101C06D9341505040E0F70895AA1B26
S1133EA0BB1B51E107C0AA1FBB1FA617B70710F021
S1133EB0A61BB70B881F991F5A95A9F78095909553
S1133EC0BC01CD01089597FB092E07260AD077FD82
S1133ED004D0E5DF06D000201AF4709561957F4F79
S1133EE00895F6F7909581959F4F0895A1E21A2EB3
S1133EF0AA1BBB1BFD010DC0AA1FBB1FEE1FFF1F8A
S1133F00A217B307E407F50720F0A21BB30BE40BD9
S1133F10F50B661F771F881F991F1A9469F7609520
S1133F207095809590959B01AC01BD01CF010895DA
S1133F30629FD001739FF001829FE00DF11D649F89
S1133F40E00DF11D929FF00D839FF00D749FF00D15
S1133F50659FF00D9927729FB00DE11DF91F639FB6
S1133F60B00DE11DF91FBD01CF01112408952F9259
S1133F703F924F925F926F927F928F929F92AF92F5
S1133F80BF92CF92DF92EF92FF920F931F93CF9342
S1133F90DF93CDB7DEB7CA1BDB0B0FB6F894DEBFD9
S1133FA00FBECDBF09942A88398848885F846E84FF
S1133FB07D848C849B84AA84B984C884DF80EE8049
S1133FC0FD800C811B81AA81B981CE0FD11D0FB652
S1113FD0F894DEBF0FBECDBFED010895FFCF04
S1133FDE0100FFA61CD51CA61C011800010022FF1F
S1133FEEFFFF0100000002000000006F0E00000041
S1053FFE0000BD
S9030000FC
